{"address":"0x52d98A770d4ccA5e7C976F5065a79DE1DcC59b67","bytecode":"0x60a06040523480156200001157600080fd5b506040516200538e3803806200538e833981810160405281019062000037919062000356565b60016000819055506200005f620000536200008c60201b60201c565b6200009460201b60201c565b8163ffffffff1660808163ffffffff168152505062000084816200015a60201b60201c565b5050620004b8565b600033905090565b6000600160009054906101000a900473ffffffffffffffffffffffffffffffffffffffff16905081600160006101000a81548173ffffffffffffffffffffffffffffffffffffffff021916908373ffffffffffffffffffffffffffffffffffffffff1602179055508173ffffffffffffffffffffffffffffffffffffffff168173ffffffffffffffffffffffffffffffffffffffff167f8be0079c531659141344cd1fd0a4f28419497f9722a3daafe3b4186f6b6457e060405160405180910390a35050565b6200016a620001f060201b60201c565b600073ffffffffffffffffffffffffffffffffffffffff168173ffffffffffffffffffffffffffffffffffffffff1603620001dc576040517f08c379a0000000000000000000000000000000000000000000000000000000008152600401620001d39062000424565b60405180910390fd5b620001ed816200009460201b60201c565b50565b620002006200008c60201b60201c565b73ffffffffffffffffffffffffffffffffffffffff16620002266200028160201b60201c565b73ffffffffffffffffffffffffffffffffffffffff16146200027f576040517f08c379a0000000000000000000000000000000000000000000000000000000008152600401620002769062000496565b60405180910390fd5b565b6000600160009054906101000a900473ffffffffffffffffffffffffffffffffffffffff16905090565b600080fd5b600063ffffffff82169050919050565b620002cb81620002b0565b8114620002d757600080fd5b50565b600081519050620002eb81620002c0565b92915050565b600073ffffffffffffffffffffffffffffffffffffffff82169050919050565b60006200031e82620002f1565b9050919050565b620003308162000311565b81146200033c57600080fd5b50565b600081519050620003508162000325565b92915050565b6000806040838503121562000370576200036f620002ab565b5b60006200038085828601620002da565b925050602062000393858286016200033f565b9150509250929050565b600082825260208201905092915050565b7f4f776e61626c653a206e6577206f776e657220697320746865207a65726f206160008201527f6464726573730000000000000000000000000000000000000000000000000000602082015250565b60006200040c6026836200039d565b91506200041982620003ae565b604082019050919050565b600060208201905081810360008301526200043f81620003fd565b9050919050565b7f4f776e61626c653a2063616c6c6572206973206e6f7420746865206f776e6572600082015250565b60006200047e6020836200039d565b91506200048b8262000446565b602082019050919050565b60006020820190508181036000830152620004b1816200046f565b9050919050565b608051614ea5620004e96000396000818161080f01528181611bd801528181612ac3015261307a0152614ea56000f3fe608060405234801561001057600080fd5b50600436106101425760003560e01c80637575be61116100b8578063ce254c111161007c578063ce254c111461038b578063d0eb2ac3146103a7578063d4ec787a146103c3578063dadffe57146103df578063daf9c210146103fb578063f2fde38b1461042b57610142565b80637575be61146102d05780637b4f274b146102ec5780638227bec81461031c5780638da5cb5b1461033a578063926c6b7a1461035857610142565b8063506746681161010a57806350674668146101fb57806350a3d9c01461022b578063523fba7f1461024757806353a78dbb146102775780636c3824ef146102aa578063715018a6146102c657610142565b806328dfcab3146101475780632cf30da01461016357806336d9dd4f14610193578063429ce93d146101c35780634ae05c7d146101df575b600080fd5b610161600480360381019061015c9190613a4a565b610447565b005b61017d60048036038101906101789190613ae3565b6105a8565b60405161018a9190613b76565b60405180910390f35b6101ad60048036038101906101a89190613c33565b610e84565b6040516101ba9190613cbd565b60405180910390f35b6101dd60048036038101906101d89190613cd8565b610ec0565b005b6101f960048036038101906101f49190613d7d565b61105f565b005b61021560048036038101906102109190613dca565b61110c565b6040516102229190613e12565b60405180910390f35b61024560048036038101906102409190613a4a565b61112c565b005b610261600480360381019061025c9190613dca565b6112d6565b60405161026e9190613b76565b60405180910390f35b610291600480360381019061028c9190613e2d565b611305565b6040516102a19493929190613e9c565b60405180910390f35b6102c460048036038101906102bf9190613d7d565b611385565b005b6102ce611432565b005b6102ea60048036038101906102e59190613d7d565b611446565b005b61030660048036038101906103019190613f63565b6114f3565b604051610313919061400e565b60405180910390f35b610324611bd6565b6040516103319190614029565b60405180910390f35b610342611bfa565b60405161034f9190614053565b60405180910390f35b610372600480360381019061036d919061406e565b611c24565b60405161038294939291906140ae565b60405180910390f35b6103a560048036038101906103a09190613d7d565b611cbd565b005b6103c160048036038101906103bc919061411f565b611d6a565b005b6103dd60048036038101906103d89190613a4a565b612459565b005b6103f960048036038101906103f4919061415f565b612475565b005b61041560048036038101906104109190613dca565b61271f565b6040516104229190613e12565b60405180910390f35b61044560048036038101906104409190613dca565b61273f565b005b61044f6127c2565b8060000160208101906104629190613dca565b73ffffffffffffffffffffffffffffffffffffffff163373ffffffffffffffffffffffffffffffffffffffff16146104cf576040517f08c379a00000000000000000000000000000000000000000000000000000000081526004016104c6906141fc565b60405180910390fd5b60006105388260000160208101906104e79190613dca565b8360200160208101906104fa919061421c565b84604001602081019061050d9190613dca565b8560600160208101906105209190613dca565b8660800160208101906105339190613dca565b610e84565b9050426003600083815260200190815260200160002060000160186101000a81548163ffffffff021916908363ffffffff160217905550807f31724a52793d2e5a3929e1855fcc03aea8657d548d3c360d8469b4aac01117e760405160405180910390a2506105a5612811565b50565b60006105b26127c2565b600061061b8660000160208101906105ca9190613dca565b8760200160208101906105dd919061421c565b8860400160208101906105f09190613dca565b8960600160208101906106039190613dca565b8a60800160208101906106169190613dca565b610e84565b9050600060046000838152602001908152602001600020858154811061064457610643614249565b5b906000526020600020016040518060800160405290816000820160009054906101000a900473ffffffffffffffffffffffffffffffffffffffff1673ffffffffffffffffffffffffffffffffffffffff1673ffffffffffffffffffffffffffffffffffffffff1681526020016000820160149054906101000a900463ffffffff1663ffffffff1663ffffffff1681526020016000820160189054906101000a900463ffffffff1663ffffffff1663ffffffff16815260200160008201601c9054906101000a900463ffffffff1663ffffffff1663ffffffff168152505090506000600360008481526020019081526020016000206040518060800160405290816000820160009054906101000a90046fffffffffffffffffffffffffffffffff166fffffffffffffffffffffffffffffffff166fffffffffffffffffffffffffffffffff1681526020016000820160109054906101000a900467ffffffffffffffff1667ffffffffffffffff1667ffffffffffffffff1681526020016000820160189054906101000a900463ffffffff1663ffffffff1663ffffffff16815260200160008201601c9054906101000a900463ffffffff1663ffffffff1663ffffffff168152505090507f00000000000000000000000000000000000000000000000000000000000000004261083991906142a7565b63ffffffff16826060015163ffffffff16101561088b576040517f08c379a00000000000000000000000000000000000000000000000000000000081526004016108829061432b565b60405180910390fd5b60008860600160208101906108a09190613dca565b90506000808273ffffffffffffffffffffffffffffffffffffffff1663858ed1d5898c8c6040518463ffffffff1660e01b81526004016108e29392919061434b565b60408051808303816000875af1158015610900573d6000803e3d6000fd5b505050506040513d601f19601f8201168201806040525081019061092491906143ac565b9150915080861461096a576040517f08c379a000000000000000000000000000000000000000000000000000000000815260040161096190614438565b60405180910390fd5b8a602001602081019061097d919061421c565b6bffffffffffffffffffffffff16856040015163ffffffff166109a09190614458565b965060405180608001604052808c60200160208101906109c0919061421c565b6bffffffffffffffffffffffff16876040015163ffffffff166109e39190614458565b86600001516109f29190614495565b6fffffffffffffffffffffffffffffffff168152602001866040015163ffffffff168660200151610a2391906144d9565b67ffffffffffffffff168152602001856040015163ffffffff168152602001856060015163ffffffff168152506003600088815260200190815260200160002060008201518160000160006101000a8154816fffffffffffffffffffffffffffffffff02191690836fffffffffffffffffffffffffffffffff16021790555060208201518160000160106101000a81548167ffffffffffffffff021916908367ffffffffffffffff16021790555060408201518160000160186101000a81548163ffffffff021916908363ffffffff160217905550606082015181600001601c6101000a81548163ffffffff021916908363ffffffff160217905550905050600460008781526020019081526020016000208981548110610b4757610b46614249565b5b90600052602060002001600080820160006101000a81549073ffffffffffffffffffffffffffffffffffffffff02191690556000820160146101000a81549063ffffffff02191690556000820160186101000a81549063ffffffff021916905560008201601c6101000a81549063ffffffff02191690555050600073ffffffffffffffffffffffffffffffffffffffff168273ffffffffffffffffffffffffffffffffffffffff1614610dc85760008b6060016020810190610c099190613dca565b73ffffffffffffffffffffffffffffffffffffffff1663af5874018d6040016020810190610c379190613dca565b8e6020016020810190610c4a919061421c565b8960400151876040518563ffffffff1660e01b8152600401610c6f9493929190614524565b602060405180830381865afa158015610c8c573d6000803e3d6000fd5b505050506040513d601f19601f82011682018060405250810190610cb0919061457e565b90508b6020016020810190610cc5919061421c565b6bffffffffffffffffffffffff16866020015163ffffffff16610ce89190614458565b6fffffffffffffffffffffffffffffffff16816fffffffffffffffffffffffffffffffff161115610d4e576040517f08c379a0000000000000000000000000000000000000000000000000000000008152600401610d45906145f7565b60405180910390fd5b6000816fffffffffffffffffffffffffffffffff1614610db857610db783826fffffffffffffffffffffffffffffffff168e6040016020810190610d929190613dca565b73ffffffffffffffffffffffffffffffffffffffff1661281b9092919063ffffffff16565b5b8088610dc49190614495565b9750505b610e1b8560000151886fffffffffffffffffffffffffffffffff168d6040016020810190610df69190613dca565b73ffffffffffffffffffffffffffffffffffffffff1661281b9092919063ffffffff16565b610e368b6040016020810190610e319190613dca565b61289a565b857f3a5b3129086a71b049a9706cececb267b758912a9f612d42b93a16d412b1cb508a604051610e66919061400e565b60405180910390a2505050505050610e7c612811565b949350505050565b60008585858585604051602001610e9f959493929190614695565b60405160208183030381529060405280519060200120905095945050505050565b610ec86127c2565b6000610ed38361298c565b9050610f84836000016020810190610eeb9190613dca565b83856040016020810190610eff9190613dca565b866060016020810190610f129190613dca565b876080016020810190610f259190613dca565b6003600088815260200190815260200160002060000160009054906101000a90046fffffffffffffffffffffffffffffffff1660036000898152602001908152602001600020600001601c9054906101000a900463ffffffff16612c16565b600460008281526020019081526020016000206000610fa39190613978565b60036000828152602001908152602001600020600080820160006101000a8154906fffffffffffffffffffffffffffffffff02191690556000820160106101000a81549067ffffffffffffffff02191690556000820160186101000a81549063ffffffff021916905560008201601c6101000a81549063ffffffff02191690555050807f482050d624c06f09d8a617ff0965e79e87f08808cb16ebcbc8a5abb73eecf96860405160405180910390a25061105b612811565b5050565b611067612f11565b60005b828290508110156111075760016005600085858581811061108e5761108d614249565b5b90506020020160208101906110a39190613dca565b73ffffffffffffffffffffffffffffffffffffffff1673ffffffffffffffffffffffffffffffffffffffff16815260200190815260200160002060006101000a81548160ff02191690831515021790555080806110ff906146f4565b91505061106a565b505050565b60066020528060005260406000206000915054906101000a900460ff1681565b6111346127c2565b8060000160208101906111479190613dca565b73ffffffffffffffffffffffffffffffffffffffff163373ffffffffffffffffffffffffffffffffffffffff1614806111bd575080608001602081019061118e9190613dca565b73ffffffffffffffffffffffffffffffffffffffff163373ffffffffffffffffffffffffffffffffffffffff16145b6111fc576040517f08c379a00000000000000000000000000000000000000000000000000000000081526004016111f3906141fc565b60405180910390fd5b60006112658260000160208101906112149190613dca565b836020016020810190611227919061421c565b84604001602081019061123a9190613dca565b85606001602081019061124d9190613dca565b8660800160208101906112609190613dca565b610e84565b905060006003600083815260200190815260200160002060000160186101000a81548163ffffffff021916908363ffffffff160217905550807fd3ed566e29c5a4437e1b8443c16d09c4ea82affd779cf3cdfb0b219df0a95e4060405160405180910390a2506112d3612811565b50565b60026020528060005260406000206000915054906101000a90046fffffffffffffffffffffffffffffffff1681565b60036020528060005260406000206000915090508060000160009054906101000a90046fffffffffffffffffffffffffffffffff16908060000160109054906101000a900467ffffffffffffffff16908060000160189054906101000a900463ffffffff169080600001601c9054906101000a900463ffffffff16905084565b61138d612f11565b60005b8282905081101561142d576000600560008585858181106113b4576113b3614249565b5b90506020020160208101906113c99190613dca565b73ffffffffffffffffffffffffffffffffffffffff1673ffffffffffffffffffffffffffffffffffffffff16815260200190815260200160002060006101000a81548160ff0219169083151502179055508080611425906146f4565b915050611390565b505050565b61143a612f11565b6114446000612f8f565b565b61144e612f11565b60005b828290508110156114ee5760016006600085858581811061147557611474614249565b5b905060200201602081019061148a9190613dca565b73ffffffffffffffffffffffffffffffffffffffff1673ffffffffffffffffffffffffffffffffffffffff16815260200190815260200160002060006101000a81548160ff02191690831515021790555080806114e6906146f4565b915050611451565b505050565b60008073ffffffffffffffffffffffffffffffffffffffff1687608001602081019061151f9190613dca565b73ffffffffffffffffffffffffffffffffffffffff16146115855786608001602081019061154d9190613dca565b73ffffffffffffffffffffffffffffffffffffffff163373ffffffffffffffffffffffffffffffffffffffff161461158457600080fd5b5b60006115ee88600001602081019061159d9190613dca565b8960200160208101906115b0919061421c565b8a60400160208101906115c39190613dca565b8b60600160208101906115d69190613dca565b8c60800160208101906115e99190613dca565b610e84565b90506000600360008381526020019081526020016000206040518060800160405290816000820160009054906101000a90046fffffffffffffffffffffffffffffffff166fffffffffffffffffffffffffffffffff166fffffffffffffffffffffffffffffffff1681526020016000820160109054906101000a900467ffffffffffffffff1667ffffffffffffffff1667ffffffffffffffff1681526020016000820160189054906101000a900463ffffffff1663ffffffff1663ffffffff16815260200160008201601c9054906101000a900463ffffffff1663ffffffff1663ffffffff168152505090506000816040015163ffffffff1614611727576040517f08c379a000000000000000000000000000000000000000000000000000000000815260040161171e90614788565b60405180910390fd5b806060015163ffffffff168763ffffffff16111561177a576040517f08c379a0000000000000000000000000000000000000000000000000000000008152600401611771906147f4565b60405180910390fd5b8563ffffffff168763ffffffff16116117c8576040517f08c379a00000000000000000000000000000000000000000000000000000000081526004016117bf90614860565b60405180910390fd5b60008060006117d8858989613055565b925092509250829550808a63ffffffff1685602001516117f89190614880565b61180291906144d9565b846020019067ffffffffffffffff16908167ffffffffffffffff168152505083600001516fffffffffffffffffffffffffffffffff168c602001602081019061184b919061421c565b6bffffffffffffffffffffffff16856020015167ffffffffffffffff166118729190614458565b6fffffffffffffffffffffffffffffffff1611156118c5576040517f08c379a00000000000000000000000000000000000000000000000000000000081526004016118bc90614908565b60405180910390fd5b818603611a10576004600086815260200190815260200160002060405180608001604052808d73ffffffffffffffffffffffffffffffffffffffff1681526020018b63ffffffff1681526020018c63ffffffff1681526020014263ffffffff168152509080600181540180825580915050600190039060005260206000200160009091909190915060008201518160000160006101000a81548173ffffffffffffffffffffffffffffffffffffffff021916908373ffffffffffffffffffffffffffffffffffffffff16021790555060208201518160000160146101000a81548163ffffffff021916908363ffffffff16021790555060408201518160000160186101000a81548163ffffffff021916908363ffffffff160217905550606082015181600001601c6101000a81548163ffffffff021916908363ffffffff1602179055505050611b48565b60405180608001604052808c73ffffffffffffffffffffffffffffffffffffffff1681526020018a63ffffffff1681526020018b63ffffffff1681526020014263ffffffff16815250600460008781526020019081526020016000208781548110611a7e57611a7d614249565b5b9060005260206000200160008201518160000160006101000a81548173ffffffffffffffffffffffffffffffffffffffff021916908373ffffffffffffffffffffffffffffffffffffffff16021790555060208201518160000160146101000a81548163ffffffff021916908363ffffffff16021790555060408201518160000160186101000a81548163ffffffff021916908363ffffffff160217905550606082015181600001601c6101000a81548163ffffffff021916908363ffffffff1602179055509050505b83602001516003600087815260200190815260200160002060000160106101000a81548167ffffffffffffffff021916908367ffffffffffffffff160217905550847f3ca0647849870040005f8e189dd464a88d61dd02c2efe19860deda7db0123f2d878d8d8d604051611bbf9493929190614928565b60405180910390a250505050509695505050505050565b7f000000000000000000000000000000000000000000000000000000000000000081565b6000600160009054906101000a900473ffffffffffffffffffffffffffffffffffffffff16905090565b60046020528160005260406000208181548110611c4057600080fd5b90600052602060002001600091509150508060000160009054906101000a900473ffffffffffffffffffffffffffffffffffffffff16908060000160149054906101000a900463ffffffff16908060000160189054906101000a900463ffffffff169080600001601c9054906101000a900463ffffffff16905084565b611cc5612f11565b60005b82829050811015611d6557600060066000858585818110611cec57611ceb614249565b5b9050602002016020810190611d019190613dca565b73ffffffffffffffffffffffffffffffffffffffff1673ffffffffffffffffffffffffffffffffffffffff16815260200190815260200160002060006101000a81548160ff0219169083151502179055508080611d5d906146f4565b915050611cc8565b505050565b611d726127c2565b816000016020810190611d859190613dca565b73ffffffffffffffffffffffffffffffffffffffff163373ffffffffffffffffffffffffffffffffffffffff1614611df2576040517f08c379a0000000000000000000000000000000000000000000000000000000008152600401611de9906145f7565b60405180910390fd5b6000611e5b836000016020810190611e0a9190613dca565b846020016020810190611e1d919061421c565b856040016020810190611e309190613dca565b866060016020810190611e439190613dca565b876080016020810190611e569190613dca565b610e84565b90506000600360008381526020019081526020016000206040518060800160405290816000820160009054906101000a90046fffffffffffffffffffffffffffffffff166fffffffffffffffffffffffffffffffff166fffffffffffffffffffffffffffffffff1681526020016000820160109054906101000a900467ffffffffffffffff1667ffffffffffffffff1667ffffffffffffffff1681526020016000820160189054906101000a900463ffffffff1663ffffffff1663ffffffff16815260200160008201601c9054906101000a900463ffffffff1663ffffffff1663ffffffff168152505090506000846020016020810190611f5c919061421c565b6bffffffffffffffffffffffff16826020015167ffffffffffffffff16611f839190614458565b8260000151611f929190614495565b90506000816fffffffffffffffffffffffffffffffff1614158015611fdb5750806fffffffffffffffffffffffffffffffff16846fffffffffffffffffffffffffffffffff1611155b1561244a576000826020015167ffffffffffffffff1614801561203e57506000846fffffffffffffffffffffffffffffffff16148061203d5750806fffffffffffffffffffffffffffffffff16846fffffffffffffffffffffffffffffffff16145b5b156120515761204c8561344c565b61242e565b6000846fffffffffffffffffffffffffffffffff160361224e5760405180608001604052808284600001516120869190614495565b6fffffffffffffffffffffffffffffffff168152602001836020015167ffffffffffffffff168152602001836040015163ffffffff168152602001836060015163ffffffff168152506003600085815260200190815260200160002060008201518160000160006101000a8154816fffffffffffffffffffffffffffffffff02191690836fffffffffffffffffffffffffffffffff16021790555060208201518160000160106101000a81548167ffffffffffffffff021916908367ffffffffffffffff16021790555060408201518160000160186101000a81548163ffffffff021916908363ffffffff160217905550606082015181600001601c6101000a81548163ffffffff021916908363ffffffff1602179055509050506122028560000160208101906121b79190613dca565b826fffffffffffffffffffffffffffffffff168760400160208101906121dd9190613dca565b73ffffffffffffffffffffffffffffffffffffffff1661281b9092919063ffffffff16565b827fd835feef185f6e21acf9cd5b9202b1fb101ddfebc1e72916a3b4e31e4d67e2518284600001516122349190614495565b6040516122419190613b76565b60405180910390a261242d565b60405180608001604052808584600001516122699190614495565b6fffffffffffffffffffffffffffffffff168152602001836020015167ffffffffffffffff168152602001836040015163ffffffff168152602001836060015163ffffffff168152506003600085815260200190815260200160002060008201518160000160006101000a8154816fffffffffffffffffffffffffffffffff02191690836fffffffffffffffffffffffffffffffff16021790555060208201518160000160106101000a81548167ffffffffffffffff021916908367ffffffffffffffff16021790555060408201518160000160186101000a81548163ffffffff021916908363ffffffff160217905550606082015181600001601c6101000a81548163ffffffff021916908363ffffffff1602179055509050506123e585600001602081019061239a9190613dca565b856fffffffffffffffffffffffffffffffff168760400160208101906123c09190613dca565b73ffffffffffffffffffffffffffffffffffffffff1661281b9092919063ffffffff16565b827fe6d60846826795516be5ff9eb1a11daaa5023dda04b4c9027d36be1a89beaa5b8584600001516124179190614495565b6040516124249190613b76565b60405180910390a25b5b6124498560400160208101906124449190613dca565b61289a565b5b505050612455612811565b5050565b6124616127c2565b61246a8161344c565b612472612811565b50565b61247d6127c2565b8160000160208101906124909190613dca565b73ffffffffffffffffffffffffffffffffffffffff163273ffffffffffffffffffffffffffffffffffffffff16148061250657508160000160208101906124d79190613dca565b73ffffffffffffffffffffffffffffffffffffffff163373ffffffffffffffffffffffffffffffffffffffff16145b612545576040517f08c379a000000000000000000000000000000000000000000000000000000000815260040161253c90614788565b60405180910390fd5b600660003373ffffffffffffffffffffffffffffffffffffffff1673ffffffffffffffffffffffffffffffffffffffff16815260200190815260200160002060009054906101000a900460ff166125d1576040517f08c379a00000000000000000000000000000000000000000000000000000000081526004016125c8906147f4565b60405180910390fd5b600560008360400160208101906125e89190613dca565b73ffffffffffffffffffffffffffffffffffffffff1673ffffffffffffffffffffffffffffffffffffffff16815260200190815260200160002060009054906101000a900460ff1661266f576040517f08c379a000000000000000000000000000000000000000000000000000000000815260040161266690614860565b60405180910390fd5b600061268c8360400160208101906126879190613dca565b6135d9565b90506126a98360400160208101906126a49190613dca565b61289a565b6127128360000160208101906126bf9190613dca565b8460200160208101906126d2919061421c565b8560400160208101906126e59190613dca565b8660600160208101906126f89190613dca565b87608001602081019061270b9190613dca565b8688612c16565b5061271b612811565b5050565b60056020528060005260406000206000915054906101000a900460ff1681565b612747612f11565b600073ffffffffffffffffffffffffffffffffffffffff168173ffffffffffffffffffffffffffffffffffffffff16036127b6576040517f08c379a00000000000000000000000000000000000000000000000000000000081526004016127ad906149df565b60405180910390fd5b6127bf81612f8f565b50565b600260005403612807576040517f08c379a00000000000000000000000000000000000000000000000000000000081526004016127fe90614a4b565b60405180910390fd5b6002600081905550565b6001600081905550565b612895838473ffffffffffffffffffffffffffffffffffffffff1663a9059cbb858560405160240161284e929190614a6b565b604051602081830303815290604052915060e01b6020820180517bffffffffffffffffffffffffffffffffffffffffffffffffffffffff8381831617835250505050613722565b505050565b8073ffffffffffffffffffffffffffffffffffffffff166370a08231306040518263ffffffff1660e01b81526004016128d39190614053565b602060405180830381865afa1580156128f0573d6000803e3d6000fd5b505050506040513d601f19601f820116820180604052508101906129149190614aa9565b600260008373ffffffffffffffffffffffffffffffffffffffff1673ffffffffffffffffffffffffffffffffffffffff16815260200190815260200160002060006101000a8154816fffffffffffffffffffffffffffffffff02191690836fffffffffffffffffffffffffffffffff16021790555050565b60008160000160208101906129a19190613dca565b73ffffffffffffffffffffffffffffffffffffffff163373ffffffffffffffffffffffffffffffffffffffff161480612a1757508160800160208101906129e89190613dca565b73ffffffffffffffffffffffffffffffffffffffff163373ffffffffffffffffffffffffffffffffffffffff16145b612a56576040517f08c379a0000000000000000000000000000000000000000000000000000000008152600401612a4d90614b22565b60405180910390fd5b612abd826000016020810190612a6c9190613dca565b836020016020810190612a7f919061421c565b846040016020810190612a929190613dca565b856060016020810190612aa59190613dca565b866080016020810190612ab89190613dca565b610e84565b905060007f0000000000000000000000000000000000000000000000000000000000000000905060006003600084815260200190815260200160002060000160189054906101000a900463ffffffff1690508142612b1b91906142a7565b63ffffffff168163ffffffff16101580612b3b575060008163ffffffff16145b15612c0f5760006004600085815260200190815260200160002080549050905060005b81811015612c0c578342612b7291906142a7565b63ffffffff16600460008781526020019081526020016000208281548110612b9d57612b9c614249565b5b90600052602060002001600001601c9054906101000a900463ffffffff1663ffffffff1610612c01576040517f08c379a0000000000000000000000000000000000000000000000000000000008152600401612bf890614b8e565b60405180910390fd5b806001019050612b5e565b50505b5050919050565b6000612c258888888888610e84565b90506000600360008381526020019081526020016000206040518060800160405290816000820160009054906101000a90046fffffffffffffffffffffffffffffffff166fffffffffffffffffffffffffffffffff166fffffffffffffffffffffffffffffffff1681526020016000820160109054906101000a900467ffffffffffffffff1667ffffffffffffffff1667ffffffffffffffff1681526020016000820160189054906101000a900463ffffffff1663ffffffff1663ffffffff16815260200160008201601c9054906101000a900463ffffffff1663ffffffff1663ffffffff16815250509050600081600001516fffffffffffffffffffffffffffffffff1603612d8c578873ffffffffffffffffffffffffffffffffffffffff167f6b221cca2cca9a5a31bcc5f15640820bd4297eb6ba1088c15c8f8964a3efca24858a8a8a8a89604051612d7f96959493929190614bae565b60405180910390a2612dd4565b817f45fff7f4f5d38c7b7734c5bd629d460f9666bb14d75789644c056c22a0c23023858360000151612dbe9190614c0f565b604051612dcb9190613b76565b60405180910390a25b6040518060800160405280858360000151612def9190614c0f565b6fffffffffffffffffffffffffffffffff168152602001826020015167ffffffffffffffff168152602001826040015163ffffffff1681526020018463ffffffff168152506003600084815260200190815260200160002060008201518160000160006101000a8154816fffffffffffffffffffffffffffffffff02191690836fffffffffffffffffffffffffffffffff16021790555060208201518160000160106101000a81548167ffffffffffffffff021916908367ffffffffffffffff16021790555060408201518160000160186101000a81548163ffffffff021916908363ffffffff160217905550606082015181600001601c6101000a81548163ffffffff021916908363ffffffff160217905550905050505050505050505050565b612f196137b9565b73ffffffffffffffffffffffffffffffffffffffff16612f37611bfa565b73ffffffffffffffffffffffffffffffffffffffff1614612f8d576040517f08c379a0000000000000000000000000000000000000000000000000000000008152600401612f8490614c9f565b60405180910390fd5b565b6000600160009054906101000a900473ffffffffffffffffffffffffffffffffffffffff16905081600160006101000a81548173ffffffffffffffffffffffffffffffffffffffff021916908373ffffffffffffffffffffffffffffffffffffffff1602179055508173ffffffffffffffffffffffffffffffffffffffff168173ffffffffffffffffffffffffffffffffffffffff167f8be0079c531659141344cd1fd0a4f28419497f9722a3daafe3b4186f6b6457e060405160405180910390a35050565b60008060006004600087815260200190815260200160002080549050925082915060007f000000000000000000000000000000000000000000000000000000000000000090506000915060005b8686905081101561344157838787838181106130c1576130c0614249565b5b90506020020135106130d85780600101905061343c565b6000600460008a8152602001908152602001600020888884818110613100576130ff614249565b5b905060200201358154811061311857613117614249565b5b906000526020600020016040518060800160405290816000820160009054906101000a900473ffffffffffffffffffffffffffffffffffffffff1673ffffffffffffffffffffffffffffffffffffffff1673ffffffffffffffffffffffffffffffffffffffff1681526020016000820160149054906101000a900463ffffffff1663ffffffff1663ffffffff1681526020016000820160189054906101000a900463ffffffff1663ffffffff1663ffffffff16815260200160008201601c9054906101000a900463ffffffff1663ffffffff1663ffffffff16815250509050824261320391906142a7565b63ffffffff16816060015163ffffffff16101561343457806040015163ffffffff16846132309190614880565b935060018561323f9190614cbf565b88888481811061325257613251614249565b5b905060200201350361330e57600460008a815260200190815260200160002080548061328157613280614cf3565b5b60019003818190600052602060002001600080820160006101000a81549073ffffffffffffffffffffffffffffffffffffffff02191690556000820160146101000a81549063ffffffff02191690556000820160186101000a81549063ffffffff021916905560008201601c6101000a81549063ffffffff021916905550509055846001900394506133c6565b600460008a815260200190815260200160002088888481811061333457613333614249565b5b905060200201358154811061334c5761334b614249565b5b90600052602060002001600080820160006101000a81549073ffffffffffffffffffffffffffffffffffffffff02191690556000820160146101000a81549063ffffffff02191690556000820160186101000a81549063ffffffff021916905560008201601c6101000a81549063ffffffff021916905550505b8787838181106133d9576133d8614249565b5b905060200201359550887f736fb73656fd4129bc62ecc381a1eb14c9a2a7501197a8845d7af60b9316ba5f89898581811061341757613416614249565b5b9050602002013560405161342b919061400e565b60405180910390a25b816001019150505b6130a2565b505093509350939050565b60006134578261298c565b90506004600082815260200190815260200160002060006134789190613978565b60036000828152602001908152602001600020600080820160006101000a8154906fffffffffffffffffffffffffffffffff02191690556000820160106101000a81549067ffffffffffffffff02191690556000820160186101000a81549063ffffffff021916905560008201601c6101000a81549063ffffffff0219169055505061358d8260000160208101906135109190613dca565b6003600084815260200190815260200160002060000160009054906101000a90046fffffffffffffffffffffffffffffffff166fffffffffffffffffffffffffffffffff168460400160208101906135689190613dca565b73ffffffffffffffffffffffffffffffffffffffff1661281b9092919063ffffffff16565b6135a88260400160208101906135a39190613dca565b61289a565b807f1250120c7ea5f036c5fcccbe892efa6a950e902d1c665f02544b9f0e17b6af7460405160405180910390a25050565b600080600260008473ffffffffffffffffffffffffffffffffffffffff1673ffffffffffffffffffffffffffffffffffffffff16815260200190815260200160002060009054906101000a90046fffffffffffffffffffffffffffffffff16905060008373ffffffffffffffffffffffffffffffffffffffff166370a08231306040518263ffffffff1660e01b81526004016136759190614053565b602060405180830381865afa158015613692573d6000803e3d6000fd5b505050506040513d601f19601f820116820180604052508101906136b69190614aa9565b905081816136c49190614495565b92506000836fffffffffffffffffffffffffffffffff160361371b576040517f08c379a000000000000000000000000000000000000000000000000000000000815260040161371290614d6e565b60405180910390fd5b5050919050565b600061374d828473ffffffffffffffffffffffffffffffffffffffff166137c190919063ffffffff16565b905060008151141580156137725750808060200190518101906137709190614dba565b155b156137b457826040517f5274afe70000000000000000000000000000000000000000000000000000000081526004016137ab9190614053565b60405180910390fd5b505050565b600033905090565b60606137cf838360006137d7565b905092915050565b60608147101561381e57306040517fcd7860590000000000000000000000000000000000000000000000000000000081526004016138159190614053565b60405180910390fd5b6000808573ffffffffffffffffffffffffffffffffffffffff1684866040516138479190614e58565b60006040518083038185875af1925050503d8060008114613884576040519150601f19603f3d011682016040523d82523d6000602084013e613889565b606091505b50915091506138998683836138a4565b925050509392505050565b6060826138b9576138b482613933565b61392b565b600082511480156138e1575060008473ffffffffffffffffffffffffffffffffffffffff163b145b1561392357836040517f9996b31500000000000000000000000000000000000000000000000000000000815260040161391a9190614053565b60405180910390fd5b81905061392c565b5b9392505050565b6000815111156139465780518082602001fd5b6040517f1425ea4200000000000000000000000000000000000000000000000000000000815260040160405180910390fd5b50805460008255906000526020600020908101906139969190613999565b50565b5b80821115613a1857600080820160006101000a81549073ffffffffffffffffffffffffffffffffffffffff02191690556000820160146101000a81549063ffffffff02191690556000820160186101000a81549063ffffffff021916905560008201601c6101000a81549063ffffffff02191690555060010161399a565b5090565b600080fd5b600080fd5b600080fd5b600060a08284031215613a4157613a40613a26565b5b81905092915050565b600060a08284031215613a6057613a5f613a1c565b5b6000613a6e84828501613a2b565b91505092915050565b6000819050919050565b613a8a81613a77565b8114613a9557600080fd5b50565b600081359050613aa781613a81565b92915050565b6000819050919050565b613ac081613aad565b8114613acb57600080fd5b50565b600081359050613add81613ab7565b92915050565b6000806000806101008587031215613afe57613afd613a1c565b5b6000613b0c87828801613a2b565b94505060a0613b1d87828801613a98565b93505060c0613b2e87828801613a98565b92505060e0613b3f87828801613ace565b91505092959194509250565b60006fffffffffffffffffffffffffffffffff82169050919050565b613b7081613b4b565b82525050565b6000602082019050613b8b6000830184613b67565b92915050565b600073ffffffffffffffffffffffffffffffffffffffff82169050919050565b6000613bbc82613b91565b9050919050565b613bcc81613bb1565b8114613bd757600080fd5b50565b600081359050613be981613bc3565b92915050565b60006bffffffffffffffffffffffff82169050919050565b613c1081613bef565b8114613c1b57600080fd5b50565b600081359050613c2d81613c07565b92915050565b600080600080600060a08688031215613c4f57613c4e613a1c565b5b6000613c5d88828901613bda565b9550506020613c6e88828901613c1e565b9450506040613c7f88828901613bda565b9350506060613c9088828901613bda565b9250506080613ca188828901613bda565b9150509295509295909350565b613cb781613aad565b82525050565b6000602082019050613cd26000830184613cae565b92915050565b60008060c08385031215613cef57613cee613a1c565b5b6000613cfd85828601613a2b565b92505060a0613d0e85828601613c1e565b9150509250929050565b600080fd5b600080fd5b600080fd5b60008083601f840112613d3d57613d3c613d18565b5b8235905067ffffffffffffffff811115613d5a57613d59613d1d565b5b602083019150836020820283011115613d7657613d75613d22565b5b9250929050565b60008060208385031215613d9457613d93613a1c565b5b600083013567ffffffffffffffff811115613db257613db1613a21565b5b613dbe85828601613d27565b92509250509250929050565b600060208284031215613de057613ddf613a1c565b5b6000613dee84828501613bda565b91505092915050565b60008115159050919050565b613e0c81613df7565b82525050565b6000602082019050613e276000830184613e03565b92915050565b600060208284031215613e4357613e42613a1c565b5b6000613e5184828501613ace565b91505092915050565b600067ffffffffffffffff82169050919050565b613e7781613e5a565b82525050565b600063ffffffff82169050919050565b613e9681613e7d565b82525050565b6000608082019050613eb16000830187613b67565b613ebe6020830186613e6e565b613ecb6040830185613e8d565b613ed86060830184613e8d565b95945050505050565b613eea81613e7d565b8114613ef557600080fd5b50565b600081359050613f0781613ee1565b92915050565b60008083601f840112613f2357613f22613d18565b5b8235905067ffffffffffffffff811115613f4057613f3f613d1d565b5b602083019150836020820283011115613f5c57613f5b613d22565b5b9250929050565b6000806000806000806101208789031215613f8157613f80613a1c565b5b6000613f8f89828a01613a2b565b96505060a0613fa089828a01613bda565b95505060c0613fb189828a01613ef8565b94505060e0613fc289828a01613ef8565b93505061010087013567ffffffffffffffff811115613fe457613fe3613a21565b5b613ff089828a01613f0d565b92509250509295509295509295565b61400881613a77565b82525050565b60006020820190506140236000830184613fff565b92915050565b600060208201905061403e6000830184613e8d565b92915050565b61404d81613bb1565b82525050565b60006020820190506140686000830184614044565b92915050565b6000806040838503121561408557614084613a1c565b5b600061409385828601613ace565b92505060206140a485828601613a98565b9150509250929050565b60006080820190506140c36000830187614044565b6140d06020830186613e8d565b6140dd6040830185613e8d565b6140ea6060830184613e8d565b95945050505050565b6140fc81613b4b565b811461410757600080fd5b50565b600081359050614119816140f3565b92915050565b60008060c0838503121561413657614135613a1c565b5b600061414485828601613a2b565b92505060a06141558582860161410a565b9150509250929050565b60008060c0838503121561417657614175613a1c565b5b600061418485828601613a2b565b92505060a061419585828601613ef8565b9150509250929050565b600082825260208201905092915050565b7f3900000000000000000000000000000000000000000000000000000000000000600082015250565b60006141e660018361419f565b91506141f1826141b0565b602082019050919050565b60006020820190508181036000830152614215816141d9565b9050919050565b60006020828403121561423257614231613a1c565b5b600061424084828501613c1e565b91505092915050565b7f4e487b7100000000000000000000000000000000000000000000000000000000600052603260045260246000fd5b7f4e487b7100000000000000000000000000000000000000000000000000000000600052601160045260246000fd5b60006142b282613e7d565b91506142bd83613e7d565b9250828203905063ffffffff8111156142d9576142d8614278565b5b92915050565b7f3700000000000000000000000000000000000000000000000000000000000000600082015250565b600061431560018361419f565b9150614320826142df565b602082019050919050565b6000602082019050818103600083015261434481614308565b9050919050565b60006060820190506143606000830186613cae565b61436d6020830185613fff565b61437a6040830184613fff565b949350505050565b60008151905061439181613bc3565b92915050565b6000815190506143a681613ab7565b92915050565b600080604083850312156143c3576143c2613a1c565b5b60006143d185828601614382565b92505060206143e285828601614397565b9150509250929050565b7f372e350000000000000000000000000000000000000000000000000000000000600082015250565b600061442260038361419f565b915061442d826143ec565b602082019050919050565b6000602082019050818103600083015261445181614415565b9050919050565b600061446382613b4b565b915061446e83613b4b565b925082820261447c81613b4b565b915080821461448e5761448d614278565b5b5092915050565b60006144a082613b4b565b91506144ab83613b4b565b925082820390506fffffffffffffffffffffffffffffffff8111156144d3576144d2614278565b5b92915050565b60006144e482613e5a565b91506144ef83613e5a565b9250828203905067ffffffffffffffff81111561450f5761450e614278565b5b92915050565b61451e81613bef565b82525050565b60006080820190506145396000830187614044565b6145466020830186614515565b6145536040830185613e8d565b6145606060830184614044565b95945050505050565b600081519050614578816140f3565b92915050565b60006020828403121561459457614593613a1c565b5b60006145a284828501614569565b91505092915050565b7f3800000000000000000000000000000000000000000000000000000000000000600082015250565b60006145e160018361419f565b91506145ec826145ab565b602082019050919050565b60006020820190508181036000830152614610816145d4565b9050919050565b60008160601b9050919050565b600061462f82614617565b9050919050565b600061464182614624565b9050919050565b61465961465482613bb1565b614636565b82525050565b60008160a01b9050919050565b60006146778261465f565b9050919050565b61468f61468a82613bef565b61466c565b82525050565b60006146a18288614648565b6014820191506146b1828761467e565b600c820191506146c18286614648565b6014820191506146d18285614648565b6014820191506146e18284614648565b6014820191508190509695505050505050565b60006146ff82613a77565b91507fffffffffffffffffffffffffffffffffffffffffffffffffffffffffffffffff820361473157614730614278565b5b600182019050919050565b7f3100000000000000000000000000000000000000000000000000000000000000600082015250565b600061477260018361419f565b915061477d8261473c565b602082019050919050565b600060208201905081810360008301526147a181614765565b9050919050565b7f3200000000000000000000000000000000000000000000000000000000000000600082015250565b60006147de60018361419f565b91506147e9826147a8565b602082019050919050565b6000602082019050818103600083015261480d816147d1565b9050919050565b7f3300000000000000000000000000000000000000000000000000000000000000600082015250565b600061484a60018361419f565b915061485582614814565b602082019050919050565b600060208201905081810360008301526148798161483d565b9050919050565b600061488b82613e5a565b915061489683613e5a565b9250828201905067ffffffffffffffff8111156148b6576148b5614278565b5b92915050565b7f3400000000000000000000000000000000000000000000000000000000000000600082015250565b60006148f260018361419f565b91506148fd826148bc565b602082019050919050565b60006020820190508181036000830152614921816148e5565b9050919050565b600060808201905061493d6000830187613fff565b61494a6020830186614044565b6149576040830185613e8d565b6149646060830184613e8d565b95945050505050565b7f4f776e61626c653a206e6577206f776e657220697320746865207a65726f206160008201527f6464726573730000000000000000000000000000000000000000000000000000602082015250565b60006149c960268361419f565b91506149d48261496d565b604082019050919050565b600060208201905081810360008301526149f8816149bc565b9050919050565b7f5265656e7472616e637947756172643a207265656e7472616e742063616c6c00600082015250565b6000614a35601f8361419f565b9150614a40826149ff565b602082019050919050565b60006020820190508181036000830152614a6481614a28565b9050919050565b6000604082019050614a806000830185614044565b614a8d6020830184613fff565b9392505050565b600081519050614aa381613a81565b92915050565b600060208284031215614abf57614abe613a1c565b5b6000614acd84828501614a94565b91505092915050565b7f3131000000000000000000000000000000000000000000000000000000000000600082015250565b6000614b0c60028361419f565b9150614b1782614ad6565b602082019050919050565b60006020820190508181036000830152614b3b81614aff565b9050919050565b7f3132000000000000000000000000000000000000000000000000000000000000600082015250565b6000614b7860028361419f565b9150614b8382614b42565b602082019050919050565b60006020820190508181036000830152614ba781614b6b565b9050919050565b600060c082019050614bc36000830189613b67565b614bd06020830188614515565b614bdd6040830187614044565b614bea6060830186614044565b614bf76080830185614044565b614c0460a0830184613e8d565b979650505050505050565b6000614c1a82613b4b565b9150614c2583613b4b565b925082820190506fffffffffffffffffffffffffffffffff811115614c4d57614c4c614278565b5b92915050565b7f4f776e61626c653a2063616c6c6572206973206e6f7420746865206f776e6572600082015250565b6000614c8960208361419f565b9150614c9482614c53565b602082019050919050565b60006020820190508181036000830152614cb881614c7c565b9050919050565b6000614cca82613a77565b9150614cd583613a77565b9250828203905081811115614ced57614cec614278565b5b92915050565b7f4e487b7100000000000000000000000000000000000000000000000000000000600052603160045260246000fd5b7f3133000000000000000000000000000000000000000000000000000000000000600082015250565b6000614d5860028361419f565b9150614d6382614d22565b602082019050919050565b60006020820190508181036000830152614d8781614d4b565b9050919050565b614d9781613df7565b8114614da257600080fd5b50565b600081519050614db481614d8e565b92915050565b600060208284031215614dd057614dcf613a1c565b5b6000614dde84828501614da5565b91505092915050565b600081519050919050565b600081905092915050565b60005b83811015614e1b578082015181840152602081019050614e00565b60008484015250505050565b6000614e3282614de7565b614e3c8185614df2565b9350614e4c818560208601614dfd565b80840191505092915050565b6000614e648284614e27565b91508190509291505056fea26469706673582212207f4c9def65d5807d55f7b210137e1d8d10483f7dcd164b7a686e2128a406619e64736f6c63430008120033","abi":[{"inputs":[{"internalType":"uint32","name":"_reserveTime","type":"uint32"},{"internalType":"address","name":"_initialOwner","type":"address"}],"stateMutability":"nonpayable","type":"constructor"},{"inputs":[{"internalType":"address","name":"target","type":"address"}],"name":"AddressEmptyCode","type":"error"},{"inputs":[{"internalType":"address","name":"account","type":"address"}],"name":"AddressInsufficientBalance","type":"error"},{"inputs":[],"name":"FailedInnerCall","type":"error"},{"inputs":[{"internalType":"address","name":"token","type":"address"}],"name":"SafeERC20FailedOperation","type":"error"},{"anonymous":false,"inputs":[{"indexed":true,"internalType":"bytes32","name":"sellOrderKey","type":"bytes32"}],"name":"ChangePrice","type":"event"},{"anonymous":false,"inputs":[{"indexed":true,"internalType":"bytes32","name":"sellOrderKey","type":"bytes32"},{"indexed":false,"internalType":"uint256","name":"index","type":"uint256"}],"name":"ClaimDeleted","type":"event"},{"anonymous":false,"inputs":[{"indexed":true,"internalType":"bytes32","name":"sellOrderKey","type":"bytes32"},{"indexed":false,"internalType":"uint256","name":"claimIndex","type":"uint256"},{"indexed":false,"internalType":"address","name":"onramperWallet","type":"address"},{"indexed":false,"internalType":"uint32","name":"amount","type":"uint32"},{"indexed":false,"internalType":"uint32","name":"maxProverFee","type":"uint32"}],"name":"ClaimPlaced","type":"event"},{"anonymous":false,"inputs":[{"indexed":true,"internalType":"bytes32","name":"sellOrderKey","type":"bytes32"}],"name":"CloseCancelled","type":"event"},{"anonymous":false,"inputs":[{"indexed":true,"internalType":"bytes32","name":"sellOrderKey","type":"bytes32"}],"name":"CloseScheduled","type":"event"},{"anonymous":false,"inputs":[{"indexed":true,"internalType":"bytes32","name":"sellOrderKey","type":"bytes32"},{"indexed":false,"internalType":"uint128","name":"amount","type":"uint128"}],"name":"DecreaseAmount","type":"event"},{"anonymous":false,"inputs":[{"indexed":true,"internalType":"bytes32","name":"sellOrderKey","type":"bytes32"},{"indexed":false,"internalType":"uint128","name":"amount","type":"uint128"}],"name":"DecreaseAmountFull","type":"event"},{"anonymous":false,"inputs":[{"indexed":true,"internalType":"bytes32","name":"sellOrderKey","type":"bytes32"},{"indexed":false,"internalType":"uint128","name":"amount","type":"uint128"}],"name":"IncreaseAmount","type":"event"},{"anonymous":false,"inputs":[{"indexed":true,"internalType":"address","name":"seller","type":"address"},{"indexed":false,"internalType":"uint128","name":"amount","type":"uint128"},{"indexed":false,"internalType":"uint96","name":"price","type":"uint96"},{"indexed":false,"internalType":"address","name":"token","type":"address"},{"indexed":false,"internalType":"address","name":"verifyContract","type":"address"},{"indexed":false,"internalType":"address","name":"sybilContract","type":"address"},{"indexed":false,"internalType":"uint32","name":"maxClaimAmount","type":"uint32"}],"name":"NewSellOrder","type":"event"},{"anonymous":false,"inputs":[{"indexed":true,"internalType":"address","name":"previousOwner","type":"address"},{"indexed":true,"internalType":"address","name":"newOwner","type":"address"}],"name":"OwnershipTransferred","type":"event"},{"anonymous":false,"inputs":[{"indexed":true,"internalType":"bytes32","name":"sellOrderKey","type":"bytes32"},{"indexed":false,"internalType":"uint256","name":"claimIndex","type":"uint256"}],"name":"PaymentComplete","type":"event"},{"anonymous":false,"inputs":[{"indexed":true,"internalType":"bytes32","name":"sellOrderKey","type":"bytes32"}],"name":"SellOrderClosed","type":"event"},{"inputs":[{"internalType":"address[]","name":"interfaces","type":"address[]"}],"name":"addInterfaces","outputs":[],"stateMutability":"nonpayable","type":"function"},{"inputs":[{"internalType":"address[]","name":"tokens","type":"address[]"}],"name":"addTokens","outputs":[],"stateMutability":"nonpayable","type":"function"},{"inputs":[{"components":[{"internalType":"address","name":"seller","type":"address"},{"internalType":"uint96","name":"price","type":"uint96"},{"internalType":"address","name":"token","type":"address"},{"internalType":"address","name":"verifyContract","type":"address"},{"internalType":"address","name":"sybilContract","type":"address"}],"internalType":"struct IOrderbook.SellOrder","name":"sellOrder","type":"tuple"}],"name":"cancelScheduleCloseSell","outputs":[],"stateMutability":"nonpayable","type":"function"},{"inputs":[{"components":[{"internalType":"address","name":"seller","type":"address"},{"internalType":"uint96","name":"price","type":"uint96"},{"internalType":"address","name":"token","type":"address"},{"internalType":"address","name":"verifyContract","type":"address"},{"internalType":"address","name":"sybilContract","type":"address"}],"internalType":"struct IOrderbook.SellOrder","name":"sellOrder","type":"tuple"},{"internalType":"address","name":"onramperWallet","type":"address"},{"internalType":"uint32","name":"amount","type":"uint32"},{"internalType":"uint32","name":"maxProverFee","type":"uint32"},{"internalType":"uint256[]","name":"expiredIdx","type":"uint256[]"}],"name":"claimSellOrder","outputs":[{"internalType":"uint256","name":"claimIndex","type":"uint256"}],"stateMutability":"nonpayable","type":"function"},{"inputs":[{"components":[{"internalType":"address","name":"seller","type":"address"},{"internalType":"uint96","name":"price","type":"uint96"},{"internalType":"address","name":"token","type":"address"},{"internalType":"address","name":"verifyContract","type":"address"},{"internalType":"address","name":"sybilContract","type":"address"}],"internalType":"struct IOrderbook.SellOrder","name":"sellOrder","type":"tuple"}],"name":"closeSellOrder","outputs":[],"stateMutability":"nonpayable","type":"function"},{"inputs":[{"internalType":"address","name":"seller","type":"address"},{"internalType":"uint96","name":"price","type":"uint96"},{"internalType":"address","name":"token","type":"address"},{"internalType":"address","name":"verifyContract","type":"address"},{"internalType":"address","name":"sybilContract","type":"address"}],"name":"getSellKey","outputs":[{"internalType":"bytes32","name":"sellOrderKey","type":"bytes32"}],"stateMutability":"pure","type":"function"},{"inputs":[{"internalType":"bytes32","name":"","type":"bytes32"},{"internalType":"uint256","name":"","type":"uint256"}],"name":"onrampClaims","outputs":[{"internalType":"address","name":"onramperWallet","type":"address"},{"internalType":"uint32","name":"maxProverFee","type":"uint32"},{"internalType":"uint32","name":"amount","type":"uint32"},{"internalType":"uint32","name":"timestamp","type":"uint32"}],"stateMutability":"view","type":"function"},{"inputs":[],"name":"owner","outputs":[{"internalType":"address","name":"","type":"address"}],"stateMutability":"view","type":"function"},{"inputs":[{"components":[{"internalType":"address","name":"seller","type":"address"},{"internalType":"uint96","name":"price","type":"uint96"},{"internalType":"address","name":"token","type":"address"},{"internalType":"address","name":"verifyContract","type":"address"},{"internalType":"address","name":"sybilContract","type":"address"}],"internalType":"struct IOrderbook.SellOrder","name":"sellOrder","type":"tuple"},{"internalType":"uint32","name":"maxClaimAmount","type":"uint32"}],"name":"placeSellOrder","outputs":[],"stateMutability":"nonpayable","type":"function"},{"inputs":[{"internalType":"address[]","name":"interfaces","type":"address[]"}],"name":"removeInterfaces","outputs":[],"stateMutability":"nonpayable","type":"function"},{"inputs":[{"internalType":"address[]","name":"tokens","type":"address[]"}],"name":"removeTokens","outputs":[],"stateMutability":"nonpayable","type":"function"},{"inputs":[],"name":"renounceOwnership","outputs":[],"stateMutability":"nonpayable","type":"function"},{"inputs":[],"name":"reserveTime","outputs":[{"internalType":"uint32","name":"","type":"uint32"}],"stateMutability":"view","type":"function"},{"inputs":[{"components":[{"internalType":"address","name":"seller","type":"address"},{"internalType":"uint96","name":"price","type":"uint96"},{"internalType":"address","name":"token","type":"address"},{"internalType":"address","name":"verifyContract","type":"address"},{"internalType":"address","name":"sybilContract","type":"address"}],"internalType":"struct IOrderbook.SellOrder","name":"sellOrder","type":"tuple"}],"name":"scheduleCloseSell","outputs":[],"stateMutability":"nonpayable","type":"function"},{"inputs":[{"internalType":"bytes32","name":"","type":"bytes32"}],"name":"sellAmounts","outputs":[{"internalType":"uint128","name":"amount","type":"uint128"},{"internalType":"uint64","name":"totalReserved","type":"uint64"},{"internalType":"uint32","name":"scheduleCloseTimestamp","type":"uint32"},{"internalType":"uint32","name":"maxClaimAmount","type":"uint32"}],"stateMutability":"view","type":"function"},{"inputs":[{"internalType":"address","name":"","type":"address"}],"name":"tokenBalances","outputs":[{"internalType":"uint128","name":"","type":"uint128"}],"stateMutability":"view","type":"function"},{"inputs":[{"internalType":"address","name":"newOwner","type":"address"}],"name":"transferOwnership","outputs":[],"stateMutability":"nonpayable","type":"function"},{"inputs":[{"components":[{"internalType":"address","name":"seller","type":"address"},{"internalType":"uint96","name":"price","type":"uint96"},{"internalType":"address","name":"token","type":"address"},{"internalType":"address","name":"verifyContract","type":"address"},{"internalType":"address","name":"sybilContract","type":"address"}],"internalType":"struct IOrderbook.SellOrder","name":"sellOrder","type":"tuple"},{"internalType":"uint128","name":"transferAmount","type":"uint128"}],"name":"transferUnreserved","outputs":[],"stateMutability":"nonpayable","type":"function"},{"inputs":[{"components":[{"internalType":"address","name":"seller","type":"address"},{"internalType":"uint96","name":"price","type":"uint96"},{"internalType":"address","name":"token","type":"address"},{"internalType":"address","name":"verifyContract","type":"address"},{"internalType":"address","name":"sybilContract","type":"address"}],"internalType":"struct IOrderbook.SellOrder","name":"sellOrder","type":"tuple"},{"internalType":"uint256","name":"sellOrderIndex","type":"uint256"},{"internalType":"uint256","name":"claimIndex","type":"uint256"},{"internalType":"bytes32","name":"proofNullifier","type":"bytes32"}],"name":"unlockFunds","outputs":[{"internalType":"uint128","name":"transferAmount","type":"uint128"}],"stateMutability":"nonpayable","type":"function"},{"inputs":[{"components":[{"internalType":"address","name":"seller","type":"address"},{"internalType":"uint96","name":"price","type":"uint96"},{"internalType":"address","name":"token","type":"address"},{"internalType":"address","name":"verifyContract","type":"address"},{"internalType":"address","name":"sybilContract","type":"address"}],"internalType":"struct IOrderbook.SellOrder","name":"sellOrder","type":"tuple"},{"internalType":"uint96","name":"newPrice","type":"uint96"}],"name":"updateSellPrice","outputs":[],"stateMutability":"nonpayable","type":"function"},{"inputs":[{"internalType":"address","name":"","type":"address"}],"name":"whitelistedInterfaces","outputs":[{"internalType":"bool","name":"","type":"bool"}],"stateMutability":"view","type":"function"},{"inputs":[{"internalType":"address","name":"","type":"address"}],"name":"whitelistedTokens","outputs":[{"internalType":"bool","name":"","type":"bool"}],"stateMutability":"view","type":"function"}]}