{"address":"0x5D2a4E8063efe661210Ec65953fdDb51FD6Fd990","bytecode":"0x60806040523480156200001157600080fd5b5060405162000bf938038062000bf98339818101604052810190620000379190620002f5565b620000576200004b6200006f60201b60201c565b6200007760201b60201c565b62000068816200013b60201b60201c565b5062000442565b600033905090565b60008060009054906101000a900473ffffffffffffffffffffffffffffffffffffffff169050816000806101000a81548173ffffffffffffffffffffffffffffffffffffffff021916908373ffffffffffffffffffffffffffffffffffffffff1602179055508173ffffffffffffffffffffffffffffffffffffffff168173ffffffffffffffffffffffffffffffffffffffff167f8be0079c531659141344cd1fd0a4f28419497f9722a3daafe3b4186f6b6457e060405160405180910390a35050565b6200014b620001d160201b60201c565b600073ffffffffffffffffffffffffffffffffffffffff168173ffffffffffffffffffffffffffffffffffffffff1603620001bd576040517f08c379a0000000000000000000000000000000000000000000000000000000008152600401620001b490620003ae565b60405180910390fd5b620001ce816200007760201b60201c565b50565b620001e16200006f60201b60201c565b73ffffffffffffffffffffffffffffffffffffffff16620002076200026260201b60201c565b73ffffffffffffffffffffffffffffffffffffffff161462000260576040517f08c379a0000000000000000000000000000000000000000000000000000000008152600401620002579062000420565b60405180910390fd5b565b60008060009054906101000a900473ffffffffffffffffffffffffffffffffffffffff16905090565b600080fd5b600073ffffffffffffffffffffffffffffffffffffffff82169050919050565b6000620002bd8262000290565b9050919050565b620002cf81620002b0565b8114620002db57600080fd5b50565b600081519050620002ef81620002c4565b92915050565b6000602082840312156200030e576200030d6200028b565b5b60006200031e84828501620002de565b91505092915050565b600082825260208201905092915050565b7f4f776e61626c653a206e6577206f776e657220697320746865207a65726f206160008201527f6464726573730000000000000000000000000000000000000000000000000000602082015250565b60006200039660268362000327565b9150620003a38262000338565b604082019050919050565b60006020820190508181036000830152620003c98162000387565b9050919050565b7f4f776e61626c653a2063616c6c6572206973206e6f7420746865206f776e6572600082015250565b60006200040860208362000327565b91506200041582620003d0565b602082019050919050565b600060208201905081810360008301526200043b81620003f9565b9050919050565b6107a780620004526000396000f3fe608060405234801561001057600080fd5b50600436106100625760003560e01c806315bc947514610067578063715018a61461009757806389a908de146100a15780638da5cb5b146100bd578063a8ac93f5146100db578063f2fde38b1461010b575b600080fd5b610081600480360381019061007c9190610532565b610127565b60405161008e91906105b0565b60405180910390f35b61009f61018e565b005b6100bb60048036038101906100b691906105cb565b6101a2565b005b6100c561022a565b6040516100d2919061061a565b60405180910390f35b6100f560048036038101906100f09190610635565b610253565b60405161010291906105b0565b60405180910390f35b61012560048036038101906101209190610635565b610282565b005b6000600160008573ffffffffffffffffffffffffffffffffffffffff1673ffffffffffffffffffffffffffffffffffffffff16815260200190815260200160002060009054906101000a90046fffffffffffffffffffffffffffffffff1690509392505050565b610196610305565b6101a06000610383565b565b6101aa610305565b8063ffffffff16600160008473ffffffffffffffffffffffffffffffffffffffff1673ffffffffffffffffffffffffffffffffffffffff16815260200190815260200160002060006101000a8154816fffffffffffffffffffffffffffffffff02191690836fffffffffffffffffffffffffffffffff1602179055505050565b60008060009054906101000a900473ffffffffffffffffffffffffffffffffffffffff16905090565b60016020528060005260406000206000915054906101000a90046fffffffffffffffffffffffffffffffff1681565b61028a610305565b600073ffffffffffffffffffffffffffffffffffffffff168173ffffffffffffffffffffffffffffffffffffffff16036102f9576040517f08c379a00000000000000000000000000000000000000000000000000000000081526004016102f0906106e5565b60405180910390fd5b61030281610383565b50565b61030d610447565b73ffffffffffffffffffffffffffffffffffffffff1661032b61022a565b73ffffffffffffffffffffffffffffffffffffffff1614610381576040517f08c379a000000000000000000000000000000000000000000000000000000000815260040161037890610751565b60405180910390fd5b565b60008060009054906101000a900473ffffffffffffffffffffffffffffffffffffffff169050816000806101000a81548173ffffffffffffffffffffffffffffffffffffffff021916908373ffffffffffffffffffffffffffffffffffffffff1602179055508173ffffffffffffffffffffffffffffffffffffffff168173ffffffffffffffffffffffffffffffffffffffff167f8be0079c531659141344cd1fd0a4f28419497f9722a3daafe3b4186f6b6457e060405160405180910390a35050565b600033905090565b600080fd5b600073ffffffffffffffffffffffffffffffffffffffff82169050919050565b600061047f82610454565b9050919050565b61048f81610474565b811461049a57600080fd5b50565b6000813590506104ac81610486565b92915050565b60006bffffffffffffffffffffffff82169050919050565b6104d3816104b2565b81146104de57600080fd5b50565b6000813590506104f0816104ca565b92915050565b600063ffffffff82169050919050565b61050f816104f6565b811461051a57600080fd5b50565b60008135905061052c81610506565b92915050565b60008060006060848603121561054b5761054a61044f565b5b60006105598682870161049d565b935050602061056a868287016104e1565b925050604061057b8682870161051d565b9150509250925092565b60006fffffffffffffffffffffffffffffffff82169050919050565b6105aa81610585565b82525050565b60006020820190506105c560008301846105a1565b92915050565b600080604083850312156105e2576105e161044f565b5b60006105f08582860161049d565b92505060206106018582860161051d565b9150509250929050565b61061481610474565b82525050565b600060208201905061062f600083018461060b565b92915050565b60006020828403121561064b5761064a61044f565b5b60006106598482850161049d565b91505092915050565b600082825260208201905092915050565b7f4f776e61626c653a206e6577206f776e657220697320746865207a65726f206160008201527f6464726573730000000000000000000000000000000000000000000000000000602082015250565b60006106cf602683610662565b91506106da82610673565b604082019050919050565b600060208201905081810360008301526106fe816106c2565b9050919050565b7f4f776e61626c653a2063616c6c6572206973206e6f7420746865206f776e6572600082015250565b600061073b602083610662565b915061074682610705565b602082019050919050565b6000602082019050818103600083015261076a8161072e565b905091905056fea2646970667358221220a6147657dda34cee1c18997356543dc4b9e5d91a45d54fd9fcda9e852085f16b64736f6c63430008120033","abi":[{"inputs":[{"internalType":"address","name":"_owner","type":"address"}],"stateMutability":"nonpayable","type":"constructor"},{"anonymous":false,"inputs":[{"indexed":true,"internalType":"address","name":"previousOwner","type":"address"},{"indexed":true,"internalType":"address","name":"newOwner","type":"address"}],"name":"OwnershipTransferred","type":"event"},{"inputs":[{"internalType":"address","name":"","type":"address"}],"name":"_fees","outputs":[{"internalType":"uint128","name":"","type":"uint128"}],"stateMutability":"view","type":"function"},{"inputs":[{"internalType":"address","name":"token","type":"address"},{"internalType":"uint96","name":"price","type":"uint96"},{"internalType":"uint32","name":"amount","type":"uint32"}],"name":"calculateFee","outputs":[{"internalType":"uint128","name":"","type":"uint128"}],"stateMutability":"view","type":"function"},{"inputs":[],"name":"owner","outputs":[{"internalType":"address","name":"","type":"address"}],"stateMutability":"view","type":"function"},{"inputs":[],"name":"renounceOwnership","outputs":[],"stateMutability":"nonpayable","type":"function"},{"inputs":[{"internalType":"address","name":"token","type":"address"},{"internalType":"uint32","name":"fee","type":"uint32"}],"name":"setFee","outputs":[],"stateMutability":"nonpayable","type":"function"},{"inputs":[{"internalType":"address","name":"newOwner","type":"address"}],"name":"transferOwnership","outputs":[],"stateMutability":"nonpayable","type":"function"}]}