{"address":"0x3B84cC2C83293fd187C70B8734C3F25529dE5c95","bytecode":"0x60c06040523480156200001157600080fd5b5060405162002b5838038062002b58833981810160405281019062000037919062000387565b620000576200004b620000c060201b60201c565b620000c860201b60201c565b600180819055508273ffffffffffffffffffffffffffffffffffffffff1660a08173ffffffffffffffffffffffffffffffffffffffff1681525050620000a3826200018c60201b60201c565b8063ffffffff1660808163ffffffff1681525050505050620004fe565b600033905090565b60008060009054906101000a900473ffffffffffffffffffffffffffffffffffffffff169050816000806101000a81548173ffffffffffffffffffffffffffffffffffffffff021916908373ffffffffffffffffffffffffffffffffffffffff1602179055508173ffffffffffffffffffffffffffffffffffffffff168173ffffffffffffffffffffffffffffffffffffffff167f8be0079c531659141344cd1fd0a4f28419497f9722a3daafe3b4186f6b6457e060405160405180910390a35050565b6200019c6200022260201b60201c565b600073ffffffffffffffffffffffffffffffffffffffff168173ffffffffffffffffffffffffffffffffffffffff16036200020e576040517f08c379a000000000000000000000000000000000000000000000000000000000815260040162000205906200046a565b60405180910390fd5b6200021f81620000c860201b60201c565b50565b62000232620000c060201b60201c565b73ffffffffffffffffffffffffffffffffffffffff1662000258620002b360201b60201c565b73ffffffffffffffffffffffffffffffffffffffff1614620002b1576040517f08c379a0000000000000000000000000000000000000000000000000000000008152600401620002a890620004dc565b60405180910390fd5b565b60008060009054906101000a900473ffffffffffffffffffffffffffffffffffffffff16905090565b600080fd5b600073ffffffffffffffffffffffffffffffffffffffff82169050919050565b60006200030e82620002e1565b9050919050565b620003208162000301565b81146200032c57600080fd5b50565b600081519050620003408162000315565b92915050565b600063ffffffff82169050919050565b620003618162000346565b81146200036d57600080fd5b50565b600081519050620003818162000356565b92915050565b600080600060608486031215620003a357620003a2620002dc565b5b6000620003b3868287016200032f565b9350506020620003c6868287016200032f565b9250506040620003d98682870162000370565b9150509250925092565b600082825260208201905092915050565b7f4f776e61626c653a206e6577206f776e657220697320746865207a65726f206160008201527f6464726573730000000000000000000000000000000000000000000000000000602082015250565b600062000452602683620003e3565b91506200045f82620003f4565b604082019050919050565b60006020820190508181036000830152620004858162000443565b9050919050565b7f4f776e61626c653a2063616c6c6572206973206e6f7420746865206f776e6572600082015250565b6000620004c4602083620003e3565b9150620004d1826200048c565b602082019050919050565b60006020820190508181036000830152620004f781620004b5565b9050919050565b60805160a05161260a6200054e60003960008181610525015281816105b60152818161095401528181610a3e015281816111870152611256015260008181610aed0152610c9e015261260a6000f3fe6080604052600436106100c25760003560e01c80638227bec81161007f578063ac9650d811610059578063ac9650d814610254578063b5ce4e4614610284578063c18b1d5e146102ad578063f2fde38b146102d8576100c2565b80638227bec8146101d55780638da5cb5b14610200578063a722dc621461022b576100c2565b8063159bed81146100c757806336d9dd4f146100f0578063462fb0eb1461012d5780636cc611621461016c578063715018a6146101955780637b4f274b146101ac575b600080fd5b3480156100d357600080fd5b506100ee60048036038101906100e991906114d5565b610301565b005b3480156100fc57600080fd5b50610117600480360381019061011291906115a4565b61075e565b6040516101249190611638565b60405180910390f35b34801561013957600080fd5b50610154600480360381019061014f919061167f565b61079a565b604051610163939291906116da565b60405180910390f35b34801561017857600080fd5b50610193600480360381019061018e91906114d5565b6107fc565b005b3480156101a157600080fd5b506101aa610a20565b005b3480156101b857600080fd5b506101d360048036038101906101ce91906117a2565b610a34565b005b3480156101e157600080fd5b506101ea610aeb565b6040516101f7919061183e565b60405180910390f35b34801561020c57600080fd5b50610215610b0f565b6040516102229190611868565b60405180910390f35b34801561023757600080fd5b50610252600480360381019061024d9190611883565b610b38565b005b61026e6004803603810190610269919061192c565b610dc9565b60405161027b9190611acb565b60405180910390f35b34801561029057600080fd5b506102ab60048036038101906102a691906114d5565b610f63565b005b3480156102b957600080fd5b506102c2611254565b6040516102cf9190611b4c565b60405180910390f35b3480156102e457600080fd5b506102ff60048036038101906102fa9190611b67565b611278565b005b6103096112fb565b60006103728260000160208101906103219190611b67565b8360200160208101906103349190611b94565b8460400160208101906103479190611b67565b85606001602081019061035a9190611b67565b86608001602081019061036d9190611b67565b61075e565b90506000600260008381526020019081526020016000206040518060600160405290816000820160009054906101000a900463ffffffff1663ffffffff1663ffffffff1681526020016000820160049054906101000a900463ffffffff1663ffffffff1663ffffffff1681526020016000820160089054906101000a90046bffffffffffffffffffffffff166bffffffffffffffffffffffff166bffffffffffffffffffffffff168152505090506002816000015163ffffffff161461046d576040517f08c379a000000000000000000000000000000000000000000000000000000000815260040161046490611c1e565b60405180910390fd5b806020015163ffffffff164263ffffffff1610156104c0576040517f08c379a00000000000000000000000000000000000000000000000000000000081526004016104b790611c8a565b60405180910390fd5b60026000838152602001908152602001600020600080820160006101000a81549063ffffffff02191690556000820160046101000a81549063ffffffff02191690556000820160086101000a8154906bffffffffffffffffffffffff021916905550507f000000000000000000000000000000000000000000000000000000000000000073ffffffffffffffffffffffffffffffffffffffff1663429ce93d8483604001516040518363ffffffff1660e01b8152600401610582929190611d86565b600060405180830381600087803b15801561059c57600080fd5b505af11580156105b0573d6000803e3d6000fd5b505050507f000000000000000000000000000000000000000000000000000000000000000073ffffffffffffffffffffffffffffffffffffffff166350a3d9c0846040518263ffffffff1660e01b815260040161060d9190611daf565b600060405180830381600087803b15801561062757600080fd5b505af115801561063b573d6000803e3d6000fd5b50505050600061069a8460000160208101906106579190611b67565b836040015186604001602081019061066f9190611b67565b8760600160208101906106829190611b67565b8860800160208101906106959190611b67565b61075e565b90508360600160208101906106af9190611b67565b73ffffffffffffffffffffffffffffffffffffffff166349d824c1826040518263ffffffff1660e01b81526004016106e79190611638565b600060405180830381600087803b15801561070157600080fd5b505af1158015610715573d6000803e3d6000fd5b505050507fdf0768834383951874e45d33d193d49886bb9a69e445cf04fa73a01108efd141836040516107489190611638565b60405180910390a150505061075b61134a565b50565b60008585858585604051602001610779959493929190611e48565b60405160208183030381529060405280519060200120905095945050505050565b60026020528060005260406000206000915090508060000160009054906101000a900463ffffffff16908060000160049054906101000a900463ffffffff16908060000160089054906101000a90046bffffffffffffffffffffffff16905083565b6108046112fb565b8060000160208101906108179190611b67565b73ffffffffffffffffffffffffffffffffffffffff163373ffffffffffffffffffffffffffffffffffffffff1614610884576040517f08c379a000000000000000000000000000000000000000000000000000000000815260040161087b90611ef3565b60405180910390fd5b60006108ed82600001602081019061089c9190611b67565b8360200160208101906108af9190611b94565b8460400160208101906108c29190611b67565b8560600160208101906108d59190611b67565b8660800160208101906108e89190611b67565b61075e565b905060026000828152602001908152602001600020600080820160006101000a81549063ffffffff02191690556000820160046101000a81549063ffffffff02191690556000820160086101000a8154906bffffffffffffffffffffffff021916905550507f000000000000000000000000000000000000000000000000000000000000000073ffffffffffffffffffffffffffffffffffffffff166350a3d9c0836040518263ffffffff1660e01b81526004016109ab9190611daf565b600060405180830381600087803b1580156109c557600080fd5b505af11580156109d9573d6000803e3d6000fd5b505050507f7a168f30d6a7a3b7aa2e211c067c04bde31169a0f3171a98084508204bc5609481604051610a0c9190611638565b60405180910390a150610a1d61134a565b50565b610a28611353565b610a3260006113d1565b565b610a3c611353565b7f000000000000000000000000000000000000000000000000000000000000000073ffffffffffffffffffffffffffffffffffffffff16637b4f274b8787878787876040518763ffffffff1660e01b8152600401610a9f96959493929190611f8e565b6020604051808303816000875af1158015610abe573d6000803e3d6000fd5b505050506040513d601f19601f82011682018060405250810190610ae29190612022565b50505050505050565b7f000000000000000000000000000000000000000000000000000000000000000081565b60008060009054906101000a900473ffffffffffffffffffffffffffffffffffffffff16905090565b610b406112fb565b826000016020810190610b539190611b67565b73ffffffffffffffffffffffffffffffffffffffff163373ffffffffffffffffffffffffffffffffffffffff1614610bc0576040517f08c379a0000000000000000000000000000000000000000000000000000000008152600401610bb790611ef3565b60405180910390fd5b6000610c29846000016020810190610bd89190611b67565b856020016020810190610beb9190611b94565b866040016020810190610bfe9190611b67565b876060016020810190610c119190611b67565b886080016020810190610c249190611b67565b61075e565b905060018363ffffffff161480610c46575060028363ffffffff16145b610c85576040517f08c379a0000000000000000000000000000000000000000000000000000000008152600401610c7c9061209b565b60405180910390fd5b60405180606001604052808463ffffffff1681526020017f000000000000000000000000000000000000000000000000000000000000000042610cc891906120ea565b63ffffffff168152602001836bffffffffffffffffffffffff168152506002600083815260200190815260200160002060008201518160000160006101000a81548163ffffffff021916908363ffffffff16021790555060208201518160000160046101000a81548163ffffffff021916908363ffffffff16021790555060408201518160000160086101000a8154816bffffffffffffffffffffffff02191690836bffffffffffffffffffffffff1602179055509050507f5113bf30b819362c31d2f4be719e39987bfe67ea94f0781d8f2f74540487f0dd818484604051610db393929190612122565b60405180910390a150610dc461134a565b505050565b60608282905067ffffffffffffffff811115610de857610de7612159565b5b604051908082528060200260200182016040528015610e1b57816020015b6060815260200190600190039081610e065790505b50905060005b83839050811015610f5c576000803073ffffffffffffffffffffffffffffffffffffffff16868685818110610e5957610e58612188565b5b9050602002810190610e6b91906121c6565b604051610e79929190612268565b600060405180830381855af49150503d8060008114610eb4576040519150601f19603f3d011682016040523d82523d6000602084013e610eb9565b606091505b509150915081610f2857604481511015610ed257600080fd5b60048101905080806020019051810190610eec9190612373565b6040517f08c379a0000000000000000000000000000000000000000000000000000000008152600401610f1f9190612400565b60405180910390fd5b80848481518110610f3c57610f3b612188565b5b602002602001018190525050508080610f5490612422565b915050610e21565b5092915050565b610f6b6112fb565b6000610fd4826000016020810190610f839190611b67565b836020016020810190610f969190611b94565b846040016020810190610fa99190611b67565b856060016020810190610fbc9190611b67565b866080016020810190610fcf9190611b67565b61075e565b90506000600260008381526020019081526020016000206040518060600160405290816000820160009054906101000a900463ffffffff1663ffffffff1663ffffffff1681526020016000820160049054906101000a900463ffffffff1663ffffffff1663ffffffff1681526020016000820160089054906101000a90046bffffffffffffffffffffffff166bffffffffffffffffffffffff166bffffffffffffffffffffffff168152505090506001816000015163ffffffff16146110cf576040517f08c379a00000000000000000000000000000000000000000000000000000000081526004016110c690611c1e565b60405180910390fd5b806020015163ffffffff164263ffffffff161015611122576040517f08c379a000000000000000000000000000000000000000000000000000000000815260040161111990611c8a565b60405180910390fd5b60026000838152602001908152602001600020600080820160006101000a81549063ffffffff02191690556000820160046101000a81549063ffffffff02191690556000820160086101000a8154906bffffffffffffffffffffffff021916905550507f000000000000000000000000000000000000000000000000000000000000000073ffffffffffffffffffffffffffffffffffffffff1663d4ec787a846040518263ffffffff1660e01b81526004016111de9190611daf565b600060405180830381600087803b1580156111f857600080fd5b505af115801561120c573d6000803e3d6000fd5b505050507f7d1978678fc4512b58e31b96bb6a56b23fe2d2bd4ffdf7e5f73714e9a4584ee78260405161123f9190611638565b60405180910390a1505061125161134a565b50565b7f000000000000000000000000000000000000000000000000000000000000000081565b611280611353565b600073ffffffffffffffffffffffffffffffffffffffff168173ffffffffffffffffffffffffffffffffffffffff16036112ef576040517f08c379a00000000000000000000000000000000000000000000000000000000081526004016112e6906124dc565b60405180910390fd5b6112f8816113d1565b50565b600260015403611340576040517f08c379a000000000000000000000000000000000000000000000000000000000815260040161133790612548565b60405180910390fd5b6002600181905550565b60018081905550565b61135b611495565b73ffffffffffffffffffffffffffffffffffffffff16611379610b0f565b73ffffffffffffffffffffffffffffffffffffffff16146113cf576040517f08c379a00000000000000000000000000000000000000000000000000000000081526004016113c6906125b4565b60405180910390fd5b565b60008060009054906101000a900473ffffffffffffffffffffffffffffffffffffffff169050816000806101000a81548173ffffffffffffffffffffffffffffffffffffffff021916908373ffffffffffffffffffffffffffffffffffffffff1602179055508173ffffffffffffffffffffffffffffffffffffffff168173ffffffffffffffffffffffffffffffffffffffff167f8be0079c531659141344cd1fd0a4f28419497f9722a3daafe3b4186f6b6457e060405160405180910390a35050565b600033905090565b6000604051905090565b600080fd5b600080fd5b600080fd5b600060a082840312156114cc576114cb6114b1565b5b81905092915050565b600060a082840312156114eb576114ea6114a7565b5b60006114f9848285016114b6565b91505092915050565b600073ffffffffffffffffffffffffffffffffffffffff82169050919050565b600061152d82611502565b9050919050565b61153d81611522565b811461154857600080fd5b50565b60008135905061155a81611534565b92915050565b60006bffffffffffffffffffffffff82169050919050565b61158181611560565b811461158c57600080fd5b50565b60008135905061159e81611578565b92915050565b600080600080600060a086880312156115c0576115bf6114a7565b5b60006115ce8882890161154b565b95505060206115df8882890161158f565b94505060406115f08882890161154b565b93505060606116018882890161154b565b92505060806116128882890161154b565b9150509295509295909350565b6000819050919050565b6116328161161f565b82525050565b600060208201905061164d6000830184611629565b92915050565b61165c8161161f565b811461166757600080fd5b50565b60008135905061167981611653565b92915050565b600060208284031215611695576116946114a7565b5b60006116a38482850161166a565b91505092915050565b600063ffffffff82169050919050565b6116c5816116ac565b82525050565b6116d481611560565b82525050565b60006060820190506116ef60008301866116bc565b6116fc60208301856116bc565b61170960408301846116cb565b949350505050565b61171a816116ac565b811461172557600080fd5b50565b60008135905061173781611711565b92915050565b600080fd5b600080fd5b600080fd5b60008083601f8401126117625761176161173d565b5b8235905067ffffffffffffffff81111561177f5761177e611742565b5b60208301915083602082028301111561179b5761179a611747565b5b9250929050565b60008060008060008061012087890312156117c0576117bf6114a7565b5b60006117ce89828a016114b6565b96505060a06117df89828a0161154b565b95505060c06117f089828a01611728565b94505060e061180189828a01611728565b93505061010087013567ffffffffffffffff811115611823576118226114ac565b5b61182f89828a0161174c565b92509250509295509295509295565b600060208201905061185360008301846116bc565b92915050565b61186281611522565b82525050565b600060208201905061187d6000830184611859565b92915050565b600080600060e0848603121561189c5761189b6114a7565b5b60006118aa868287016114b6565b93505060a06118bb86828701611728565b92505060c06118cc8682870161158f565b9150509250925092565b60008083601f8401126118ec576118eb61173d565b5b8235905067ffffffffffffffff81111561190957611908611742565b5b60208301915083602082028301111561192557611924611747565b5b9250929050565b60008060208385031215611943576119426114a7565b5b600083013567ffffffffffffffff811115611961576119606114ac565b5b61196d858286016118d6565b92509250509250929050565b600081519050919050565b600082825260208201905092915050565b6000819050602082019050919050565b600081519050919050565b600082825260208201905092915050565b60005b838110156119df5780820151818401526020810190506119c4565b60008484015250505050565b6000601f19601f8301169050919050565b6000611a07826119a5565b611a1181856119b0565b9350611a218185602086016119c1565b611a2a816119eb565b840191505092915050565b6000611a4183836119fc565b905092915050565b6000602082019050919050565b6000611a6182611979565b611a6b8185611984565b935083602082028501611a7d85611995565b8060005b85811015611ab95784840389528151611a9a8582611a35565b9450611aa583611a49565b925060208a01995050600181019050611a81565b50829750879550505050505092915050565b60006020820190508181036000830152611ae58184611a56565b905092915050565b6000819050919050565b6000611b12611b0d611b0884611502565b611aed565b611502565b9050919050565b6000611b2482611af7565b9050919050565b6000611b3682611b19565b9050919050565b611b4681611b2b565b82525050565b6000602082019050611b616000830184611b3d565b92915050565b600060208284031215611b7d57611b7c6114a7565b5b6000611b8b8482850161154b565b91505092915050565b600060208284031215611baa57611ba96114a7565b5b6000611bb88482850161158f565b91505092915050565b600082825260208201905092915050565b7f3300000000000000000000000000000000000000000000000000000000000000600082015250565b6000611c08600183611bc1565b9150611c1382611bd2565b602082019050919050565b60006020820190508181036000830152611c3781611bfb565b9050919050565b7f3400000000000000000000000000000000000000000000000000000000000000600082015250565b6000611c74600183611bc1565b9150611c7f82611c3e565b602082019050919050565b60006020820190508181036000830152611ca381611c67565b9050919050565b6000611cb9602084018461154b565b905092915050565b611cca81611522565b82525050565b6000611cdf602084018461158f565b905092915050565b611cf081611560565b82525050565b60a08201611d076000830183611caa565b611d146000850182611cc1565b50611d226020830183611cd0565b611d2f6020850182611ce7565b50611d3d6040830183611caa565b611d4a6040850182611cc1565b50611d586060830183611caa565b611d656060850182611cc1565b50611d736080830183611caa565b611d806080850182611cc1565b50505050565b600060c082019050611d9b6000830185611cf6565b611da860a08301846116cb565b9392505050565b600060a082019050611dc46000830184611cf6565b92915050565b60008160601b9050919050565b6000611de282611dca565b9050919050565b6000611df482611dd7565b9050919050565b611e0c611e0782611522565b611de9565b82525050565b60008160a01b9050919050565b6000611e2a82611e12565b9050919050565b611e42611e3d82611560565b611e1f565b82525050565b6000611e548288611dfb565b601482019150611e648287611e31565b600c82019150611e748286611dfb565b601482019150611e848285611dfb565b601482019150611e948284611dfb565b6014820191508190509695505050505050565b7f3100000000000000000000000000000000000000000000000000000000000000600082015250565b6000611edd600183611bc1565b9150611ee882611ea7565b602082019050919050565b60006020820190508181036000830152611f0c81611ed0565b9050919050565b600082825260208201905092915050565b600080fd5b82818337505050565b6000611f3e8385611f13565b93507f07ffffffffffffffffffffffffffffffffffffffffffffffffffffffffffffff831115611f7157611f70611f24565b5b602083029250611f82838584611f29565b82840190509392505050565b600061012082019050611fa46000830189611cf6565b611fb160a0830188611859565b611fbe60c08301876116bc565b611fcb60e08301866116bc565b818103610100830152611fdf818486611f32565b9050979650505050505050565b6000819050919050565b611fff81611fec565b811461200a57600080fd5b50565b60008151905061201c81611ff6565b92915050565b600060208284031215612038576120376114a7565b5b60006120468482850161200d565b91505092915050565b7f3200000000000000000000000000000000000000000000000000000000000000600082015250565b6000612085600183611bc1565b91506120908261204f565b602082019050919050565b600060208201905081810360008301526120b481612078565b9050919050565b7f4e487b7100000000000000000000000000000000000000000000000000000000600052601160045260246000fd5b60006120f5826116ac565b9150612100836116ac565b9250828201905063ffffffff81111561211c5761211b6120bb565b5b92915050565b60006060820190506121376000830186611629565b61214460208301856116bc565b61215160408301846116cb565b949350505050565b7f4e487b7100000000000000000000000000000000000000000000000000000000600052604160045260246000fd5b7f4e487b7100000000000000000000000000000000000000000000000000000000600052603260045260246000fd5b600080fd5b600080fd5b600080fd5b600080833560016020038436030381126121e3576121e26121b7565b5b80840192508235915067ffffffffffffffff821115612205576122046121bc565b5b602083019250600182023603831315612221576122206121c1565b5b509250929050565b600081905092915050565b82818337600083830152505050565b600061224f8385612229565b935061225c838584612234565b82840190509392505050565b6000612275828486612243565b91508190509392505050565b600080fd5b61228f826119eb565b810181811067ffffffffffffffff821117156122ae576122ad612159565b5b80604052505050565b60006122c161149d565b90506122cd8282612286565b919050565b600067ffffffffffffffff8211156122ed576122ec612159565b5b6122f6826119eb565b9050602081019050919050565b6000612316612311846122d2565b6122b7565b90508281526020810184848401111561233257612331612281565b5b61233d8482856119c1565b509392505050565b600082601f83011261235a5761235961173d565b5b815161236a848260208601612303565b91505092915050565b600060208284031215612389576123886114a7565b5b600082015167ffffffffffffffff8111156123a7576123a66114ac565b5b6123b384828501612345565b91505092915050565b600081519050919050565b60006123d2826123bc565b6123dc8185611bc1565b93506123ec8185602086016119c1565b6123f5816119eb565b840191505092915050565b6000602082019050818103600083015261241a81846123c7565b905092915050565b600061242d82611fec565b91507fffffffffffffffffffffffffffffffffffffffffffffffffffffffffffffffff820361245f5761245e6120bb565b5b600182019050919050565b7f4f776e61626c653a206e6577206f776e657220697320746865207a65726f206160008201527f6464726573730000000000000000000000000000000000000000000000000000602082015250565b60006124c6602683611bc1565b91506124d18261246a565b604082019050919050565b600060208201905081810360008301526124f5816124b9565b9050919050565b7f5265656e7472616e637947756172643a207265656e7472616e742063616c6c00600082015250565b6000612532601f83611bc1565b915061253d826124fc565b602082019050919050565b6000602082019050818103600083015261256181612525565b9050919050565b7f4f776e61626c653a2063616c6c6572206973206e6f7420746865206f776e6572600082015250565b600061259e602083611bc1565b91506125a982612568565b602082019050919050565b600060208201905081810360008301526125cd81612591565b905091905056fea2646970667358221220fd9dadb7dfde3efc9a53dee170239e407f57321a0249de98ebb9a437b956838c64736f6c63430008120033","abi":[{"inputs":[{"internalType":"address","name":"_orderbook","type":"address"},{"internalType":"address","name":"_initialOwner","type":"address"},{"internalType":"uint32","name":"_reserveTime","type":"uint32"}],"stateMutability":"nonpayable","type":"constructor"},{"anonymous":false,"inputs":[{"indexed":false,"internalType":"bytes32","name":"sellOrderKey","type":"bytes32"}],"name":"CloseExecuted","type":"event"},{"anonymous":false,"inputs":[{"indexed":false,"internalType":"bytes32","name":"sellOrderKey","type":"bytes32"}],"name":"OperationCanceled","type":"event"},{"anonymous":false,"inputs":[{"indexed":false,"internalType":"bytes32","name":"sellOrderKey","type":"bytes32"},{"indexed":false,"internalType":"uint32","name":"id","type":"uint32"},{"indexed":false,"internalType":"uint96","name":"data","type":"uint96"}],"name":"OperationScheduled","type":"event"},{"anonymous":false,"inputs":[{"indexed":true,"internalType":"address","name":"previousOwner","type":"address"},{"indexed":true,"internalType":"address","name":"newOwner","type":"address"}],"name":"OwnershipTransferred","type":"event"},{"anonymous":false,"inputs":[{"indexed":false,"internalType":"bytes32","name":"sellOrderKey","type":"bytes32"}],"name":"PriceExecuted","type":"event"},{"inputs":[{"components":[{"internalType":"address","name":"seller","type":"address"},{"internalType":"uint96","name":"price","type":"uint96"},{"internalType":"address","name":"token","type":"address"},{"internalType":"address","name":"verifyContract","type":"address"},{"internalType":"address","name":"sybilContract","type":"address"}],"internalType":"struct IOrderbook.SellOrder","name":"sellOrder","type":"tuple"}],"name":"cancelOperation","outputs":[],"stateMutability":"nonpayable","type":"function"},{"inputs":[{"components":[{"internalType":"address","name":"seller","type":"address"},{"internalType":"uint96","name":"price","type":"uint96"},{"internalType":"address","name":"token","type":"address"},{"internalType":"address","name":"verifyContract","type":"address"},{"internalType":"address","name":"sybilContract","type":"address"}],"internalType":"struct IOrderbook.SellOrder","name":"sellOrder","type":"tuple"},{"internalType":"address","name":"onramperWallet","type":"address"},{"internalType":"uint32","name":"amount","type":"uint32"},{"internalType":"uint32","name":"maxProverFee","type":"uint32"},{"internalType":"uint256[]","name":"expiredIdx","type":"uint256[]"}],"name":"claimSellOrder","outputs":[],"stateMutability":"nonpayable","type":"function"},{"inputs":[{"components":[{"internalType":"address","name":"seller","type":"address"},{"internalType":"uint96","name":"price","type":"uint96"},{"internalType":"address","name":"token","type":"address"},{"internalType":"address","name":"verifyContract","type":"address"},{"internalType":"address","name":"sybilContract","type":"address"}],"internalType":"struct IOrderbook.SellOrder","name":"sellOrder","type":"tuple"}],"name":"executeClose","outputs":[],"stateMutability":"nonpayable","type":"function"},{"inputs":[{"components":[{"internalType":"address","name":"seller","type":"address"},{"internalType":"uint96","name":"price","type":"uint96"},{"internalType":"address","name":"token","type":"address"},{"internalType":"address","name":"verifyContract","type":"address"},{"internalType":"address","name":"sybilContract","type":"address"}],"internalType":"struct IOrderbook.SellOrder","name":"sellOrder","type":"tuple"}],"name":"executePrice","outputs":[],"stateMutability":"nonpayable","type":"function"},{"inputs":[{"internalType":"address","name":"seller","type":"address"},{"internalType":"uint96","name":"price","type":"uint96"},{"internalType":"address","name":"token","type":"address"},{"internalType":"address","name":"verifyContract","type":"address"},{"internalType":"address","name":"sybilContract","type":"address"}],"name":"getSellKey","outputs":[{"internalType":"bytes32","name":"","type":"bytes32"}],"stateMutability":"pure","type":"function"},{"inputs":[{"internalType":"bytes[]","name":"data","type":"bytes[]"}],"name":"multicall","outputs":[{"internalType":"bytes[]","name":"results","type":"bytes[]"}],"stateMutability":"payable","type":"function"},{"inputs":[],"name":"orderbook","outputs":[{"internalType":"contract IOrderbook","name":"","type":"address"}],"stateMutability":"view","type":"function"},{"inputs":[],"name":"owner","outputs":[{"internalType":"address","name":"","type":"address"}],"stateMutability":"view","type":"function"},{"inputs":[],"name":"renounceOwnership","outputs":[],"stateMutability":"nonpayable","type":"function"},{"inputs":[],"name":"reserveTime","outputs":[{"internalType":"uint32","name":"","type":"uint32"}],"stateMutability":"view","type":"function"},{"inputs":[{"components":[{"internalType":"address","name":"seller","type":"address"},{"internalType":"uint96","name":"price","type":"uint96"},{"internalType":"address","name":"token","type":"address"},{"internalType":"address","name":"verifyContract","type":"address"},{"internalType":"address","name":"sybilContract","type":"address"}],"internalType":"struct IOrderbook.SellOrder","name":"sellOrder","type":"tuple"},{"internalType":"uint32","name":"id","type":"uint32"},{"internalType":"uint96","name":"data","type":"uint96"}],"name":"scheduleOperation","outputs":[],"stateMutability":"nonpayable","type":"function"},{"inputs":[{"internalType":"bytes32","name":"","type":"bytes32"}],"name":"scheduledOperation","outputs":[{"internalType":"uint32","name":"id","type":"uint32"},{"internalType":"uint32","name":"timestamp","type":"uint32"},{"internalType":"uint96","name":"data","type":"uint96"}],"stateMutability":"view","type":"function"},{"inputs":[{"internalType":"address","name":"newOwner","type":"address"}],"name":"transferOwnership","outputs":[],"stateMutability":"nonpayable","type":"function"}]}