{"address":"0xF67738730c15Df6c1CCB348400F850b9E878C0B3","bytecode":"0x60806040523480156200001157600080fd5b5060405162001b2038038062001b20833981810160405281019062000037919062000250565b826003908162000048919062000535565b5081600490816200005a919062000535565b5080600560006101000a81548160ff021916908360ff1602179055505050506200061c565b6000604051905090565b600080fd5b600080fd5b600080fd5b600080fd5b6000601f19601f8301169050919050565b7f4e487b7100000000000000000000000000000000000000000000000000000000600052604160045260246000fd5b620000e8826200009d565b810181811067ffffffffffffffff821117156200010a5762000109620000ae565b5b80604052505050565b60006200011f6200007f565b90506200012d8282620000dd565b919050565b600067ffffffffffffffff82111562000150576200014f620000ae565b5b6200015b826200009d565b9050602081019050919050565b60005b83811015620001885780820151818401526020810190506200016b565b60008484015250505050565b6000620001ab620001a58462000132565b62000113565b905082815260208101848484011115620001ca57620001c962000098565b5b620001d784828562000168565b509392505050565b600082601f830112620001f757620001f662000093565b5b81516200020984826020860162000194565b91505092915050565b600060ff82169050919050565b6200022a8162000212565b81146200023657600080fd5b50565b6000815190506200024a816200021f565b92915050565b6000806000606084860312156200026c576200026b62000089565b5b600084015167ffffffffffffffff8111156200028d576200028c6200008e565b5b6200029b86828701620001df565b935050602084015167ffffffffffffffff811115620002bf57620002be6200008e565b5b620002cd86828701620001df565b9250506040620002e08682870162000239565b9150509250925092565b600081519050919050565b7f4e487b7100000000000000000000000000000000000000000000000000000000600052602260045260246000fd5b600060028204905060018216806200033d57607f821691505b602082108103620003535762000352620002f5565b5b50919050565b60008190508160005260206000209050919050565b60006020601f8301049050919050565b600082821b905092915050565b600060088302620003bd7fffffffffffffffffffffffffffffffffffffffffffffffffffffffffffffffff826200037e565b620003c986836200037e565b95508019841693508086168417925050509392505050565b6000819050919050565b6000819050919050565b600062000416620004106200040a84620003e1565b620003eb565b620003e1565b9050919050565b6000819050919050565b6200043283620003f5565b6200044a62000441826200041d565b8484546200038b565b825550505050565b600090565b6200046162000452565b6200046e81848462000427565b505050565b5b8181101562000496576200048a60008262000457565b60018101905062000474565b5050565b601f821115620004e557620004af8162000359565b620004ba846200036e565b81016020851015620004ca578190505b620004e2620004d9856200036e565b83018262000473565b50505b505050565b600082821c905092915050565b60006200050a60001984600802620004ea565b1980831691505092915050565b6000620005258383620004f7565b9150826002028217905092915050565b6200054082620002ea565b67ffffffffffffffff8111156200055c576200055b620000ae565b5b62000568825462000324565b620005758282856200049a565b600060209050601f831160018114620005ad576000841562000598578287015190505b620005a4858262000517565b86555062000614565b601f198416620005bd8662000359565b60005b82811015620005e757848901518255600182019150602085019450602081019050620005c0565b8683101562000607578489015162000603601f891682620004f7565b8355505b6001600288020188555050505b505050505050565b6114f4806200062c6000396000f3fe6080604052600436106100c25760003560e01c806340c10f191161007f578063a457c2d711610059578063a457c2d714610290578063a9059cbb146102cd578063d0e30db01461030a578063dd62ed3e14610314576100c2565b806340c10f19146101ff57806370a082311461022857806395d89b4114610265576100c2565b806306fdde03146100c7578063095ea7b3146100f257806318160ddd1461012f57806323b872dd1461015a578063313ce5671461019757806339509351146101c2575b600080fd5b3480156100d357600080fd5b506100dc610351565b6040516100e99190610d65565b60405180910390f35b3480156100fe57600080fd5b5061011960048036038101906101149190610e20565b6103e3565b6040516101269190610e7b565b60405180910390f35b34801561013b57600080fd5b50610144610406565b6040516101519190610ea5565b60405180910390f35b34801561016657600080fd5b50610181600480360381019061017c9190610ec0565b610410565b60405161018e9190610e7b565b60405180910390f35b3480156101a357600080fd5b506101ac61043f565b6040516101b99190610f2f565b60405180910390f35b3480156101ce57600080fd5b506101e960048036038101906101e49190610e20565b610456565b6040516101f69190610e7b565b60405180910390f35b34801561020b57600080fd5b5061022660048036038101906102219190610e20565b61048d565b005b34801561023457600080fd5b5061024f600480360381019061024a9190610f4a565b61049b565b60405161025c9190610ea5565b60405180910390f35b34801561027157600080fd5b5061027a6104e3565b6040516102879190610d65565b60405180910390f35b34801561029c57600080fd5b506102b760048036038101906102b29190610e20565b610575565b6040516102c49190610e7b565b60405180910390f35b3480156102d957600080fd5b506102f460048036038101906102ef9190610e20565b6105ec565b6040516103019190610e7b565b60405180910390f35b61031261060f565b005b34801561032057600080fd5b5061033b60048036038101906103369190610f77565b61061b565b6040516103489190610ea5565b60405180910390f35b60606003805461036090610fe6565b80601f016020809104026020016040519081016040528092919081815260200182805461038c90610fe6565b80156103d95780601f106103ae576101008083540402835291602001916103d9565b820191906000526020600020905b8154815290600101906020018083116103bc57829003601f168201915b5050505050905090565b6000806103ee6106a2565b90506103fb8185856106aa565b600191505092915050565b6000600254905090565b60008061041b6106a2565b9050610428858285610873565b6104338585856108ff565b60019150509392505050565b6000600560009054906101000a900460ff16905090565b6000806104616106a2565b9050610482818585610473858961061b565b61047d9190611046565b6106aa565b600191505092915050565b6104978282610b75565b5050565b60008060008373ffffffffffffffffffffffffffffffffffffffff1673ffffffffffffffffffffffffffffffffffffffff168152602001908152602001600020549050919050565b6060600480546104f290610fe6565b80601f016020809104026020016040519081016040528092919081815260200182805461051e90610fe6565b801561056b5780601f106105405761010080835404028352916020019161056b565b820191906000526020600020905b81548152906001019060200180831161054e57829003601f168201915b5050505050905090565b6000806105806106a2565b9050600061058e828661061b565b9050838110156105d3576040517f08c379a00000000000000000000000000000000000000000000000000000000081526004016105ca906110ec565b60405180910390fd5b6105e082868684036106aa565b60019250505092915050565b6000806105f76106a2565b90506106048185856108ff565b600191505092915050565b6106193334610b75565b565b6000600160008473ffffffffffffffffffffffffffffffffffffffff1673ffffffffffffffffffffffffffffffffffffffff16815260200190815260200160002060008373ffffffffffffffffffffffffffffffffffffffff1673ffffffffffffffffffffffffffffffffffffffff16815260200190815260200160002054905092915050565b600033905090565b600073ffffffffffffffffffffffffffffffffffffffff168373ffffffffffffffffffffffffffffffffffffffff1603610719576040517f08c379a00000000000000000000000000000000000000000000000000000000081526004016107109061117e565b60405180910390fd5b600073ffffffffffffffffffffffffffffffffffffffff168273ffffffffffffffffffffffffffffffffffffffff1603610788576040517f08c379a000000000000000000000000000000000000000000000000000000000815260040161077f90611210565b60405180910390fd5b80600160008573ffffffffffffffffffffffffffffffffffffffff1673ffffffffffffffffffffffffffffffffffffffff16815260200190815260200160002060008473ffffffffffffffffffffffffffffffffffffffff1673ffffffffffffffffffffffffffffffffffffffff168152602001908152602001600020819055508173ffffffffffffffffffffffffffffffffffffffff168373ffffffffffffffffffffffffffffffffffffffff167f8c5be1e5ebec7d5bd14f71427d1e84f3dd0314c0f7b2291e5b200ac8c7c3b925836040516108669190610ea5565b60405180910390a3505050565b600061087f848461061b565b90507fffffffffffffffffffffffffffffffffffffffffffffffffffffffffffffffff81146108f957818110156108eb576040517f08c379a00000000000000000000000000000000000000000000000000000000081526004016108e29061127c565b60405180910390fd5b6108f884848484036106aa565b5b50505050565b600073ffffffffffffffffffffffffffffffffffffffff168373ffffffffffffffffffffffffffffffffffffffff160361096e576040517f08c379a00000000000000000000000000000000000000000000000000000000081526004016109659061130e565b60405180910390fd5b600073ffffffffffffffffffffffffffffffffffffffff168273ffffffffffffffffffffffffffffffffffffffff16036109dd576040517f08c379a00000000000000000000000000000000000000000000000000000000081526004016109d4906113a0565b60405180910390fd5b6109e8838383610ccb565b60008060008573ffffffffffffffffffffffffffffffffffffffff1673ffffffffffffffffffffffffffffffffffffffff16815260200190815260200160002054905081811015610a6e576040517f08c379a0000000000000000000000000000000000000000000000000000000008152600401610a6590611432565b60405180910390fd5b8181036000808673ffffffffffffffffffffffffffffffffffffffff1673ffffffffffffffffffffffffffffffffffffffff16815260200190815260200160002081905550816000808573ffffffffffffffffffffffffffffffffffffffff1673ffffffffffffffffffffffffffffffffffffffff168152602001908152602001600020600082825401925050819055508273ffffffffffffffffffffffffffffffffffffffff168473ffffffffffffffffffffffffffffffffffffffff167fddf252ad1be2c89b69c2b068fc378daa952ba7f163c4a11628f55a4df523b3ef84604051610b5c9190610ea5565b60405180910390a3610b6f848484610cd0565b50505050565b600073ffffffffffffffffffffffffffffffffffffffff168273ffffffffffffffffffffffffffffffffffffffff1603610be4576040517f08c379a0000000000000000000000000000000000000000000000000000000008152600401610bdb9061149e565b60405180910390fd5b610bf060008383610ccb565b8060026000828254610c029190611046565b92505081905550806000808473ffffffffffffffffffffffffffffffffffffffff1673ffffffffffffffffffffffffffffffffffffffff168152602001908152602001600020600082825401925050819055508173ffffffffffffffffffffffffffffffffffffffff16600073ffffffffffffffffffffffffffffffffffffffff167fddf252ad1be2c89b69c2b068fc378daa952ba7f163c4a11628f55a4df523b3ef83604051610cb39190610ea5565b60405180910390a3610cc760008383610cd0565b5050565b505050565b505050565b600081519050919050565b600082825260208201905092915050565b60005b83811015610d0f578082015181840152602081019050610cf4565b60008484015250505050565b6000601f19601f8301169050919050565b6000610d3782610cd5565b610d418185610ce0565b9350610d51818560208601610cf1565b610d5a81610d1b565b840191505092915050565b60006020820190508181036000830152610d7f8184610d2c565b905092915050565b600080fd5b600073ffffffffffffffffffffffffffffffffffffffff82169050919050565b6000610db782610d8c565b9050919050565b610dc781610dac565b8114610dd257600080fd5b50565b600081359050610de481610dbe565b92915050565b6000819050919050565b610dfd81610dea565b8114610e0857600080fd5b50565b600081359050610e1a81610df4565b92915050565b60008060408385031215610e3757610e36610d87565b5b6000610e4585828601610dd5565b9250506020610e5685828601610e0b565b9150509250929050565b60008115159050919050565b610e7581610e60565b82525050565b6000602082019050610e906000830184610e6c565b92915050565b610e9f81610dea565b82525050565b6000602082019050610eba6000830184610e96565b92915050565b600080600060608486031215610ed957610ed8610d87565b5b6000610ee786828701610dd5565b9350506020610ef886828701610dd5565b9250506040610f0986828701610e0b565b9150509250925092565b600060ff82169050919050565b610f2981610f13565b82525050565b6000602082019050610f446000830184610f20565b92915050565b600060208284031215610f6057610f5f610d87565b5b6000610f6e84828501610dd5565b91505092915050565b60008060408385031215610f8e57610f8d610d87565b5b6000610f9c85828601610dd5565b9250506020610fad85828601610dd5565b9150509250929050565b7f4e487b7100000000000000000000000000000000000000000000000000000000600052602260045260246000fd5b60006002820490506001821680610ffe57607f821691505b60208210810361101157611010610fb7565b5b50919050565b7f4e487b7100000000000000000000000000000000000000000000000000000000600052601160045260246000fd5b600061105182610dea565b915061105c83610dea565b925082820190508082111561107457611073611017565b5b92915050565b7f45524332303a2064656372656173656420616c6c6f77616e63652062656c6f7760008201527f207a65726f000000000000000000000000000000000000000000000000000000602082015250565b60006110d6602583610ce0565b91506110e18261107a565b604082019050919050565b60006020820190508181036000830152611105816110c9565b9050919050565b7f45524332303a20617070726f76652066726f6d20746865207a65726f2061646460008201527f7265737300000000000000000000000000000000000000000000000000000000602082015250565b6000611168602483610ce0565b91506111738261110c565b604082019050919050565b600060208201905081810360008301526111978161115b565b9050919050565b7f45524332303a20617070726f766520746f20746865207a65726f20616464726560008201527f7373000000000000000000000000000000000000000000000000000000000000602082015250565b60006111fa602283610ce0565b91506112058261119e565b604082019050919050565b60006020820190508181036000830152611229816111ed565b9050919050565b7f45524332303a20696e73756666696369656e7420616c6c6f77616e6365000000600082015250565b6000611266601d83610ce0565b915061127182611230565b602082019050919050565b6000602082019050818103600083015261129581611259565b9050919050565b7f45524332303a207472616e736665722066726f6d20746865207a65726f20616460008201527f6472657373000000000000000000000000000000000000000000000000000000602082015250565b60006112f8602583610ce0565b91506113038261129c565b604082019050919050565b60006020820190508181036000830152611327816112eb565b9050919050565b7f45524332303a207472616e7366657220746f20746865207a65726f206164647260008201527f6573730000000000000000000000000000000000000000000000000000000000602082015250565b600061138a602383610ce0565b91506113958261132e565b604082019050919050565b600060208201905081810360008301526113b98161137d565b9050919050565b7f45524332303a207472616e7366657220616d6f756e742065786365656473206260008201527f616c616e63650000000000000000000000000000000000000000000000000000602082015250565b600061141c602683610ce0565b9150611427826113c0565b604082019050919050565b6000602082019050818103600083015261144b8161140f565b9050919050565b7f45524332303a206d696e7420746f20746865207a65726f206164647265737300600082015250565b6000611488601f83610ce0565b915061149382611452565b602082019050919050565b600060208201905081810360008301526114b78161147b565b905091905056fea2646970667358221220f9db4538f140bd49e6227c42a7adff84ce49cc381537c7bc3226e053b60a149d64736f6c63430008120033","abi":[{"inputs":[{"internalType":"string","name":"token_name","type":"string"},{"internalType":"string","name":"token_symbol","type":"string"},{"internalType":"uint8","name":"token_decimals","type":"uint8"}],"stateMutability":"nonpayable","type":"constructor"},{"anonymous":false,"inputs":[{"indexed":true,"internalType":"address","name":"owner","type":"address"},{"indexed":true,"internalType":"address","name":"spender","type":"address"},{"indexed":false,"internalType":"uint256","name":"value","type":"uint256"}],"name":"Approval","type":"event"},{"anonymous":false,"inputs":[{"indexed":true,"internalType":"address","name":"from","type":"address"},{"indexed":true,"internalType":"address","name":"to","type":"address"},{"indexed":false,"internalType":"uint256","name":"value","type":"uint256"}],"name":"Transfer","type":"event"},{"inputs":[{"internalType":"address","name":"owner","type":"address"},{"internalType":"address","name":"spender","type":"address"}],"name":"allowance","outputs":[{"internalType":"uint256","name":"","type":"uint256"}],"stateMutability":"view","type":"function"},{"inputs":[{"internalType":"address","name":"spender","type":"address"},{"internalType":"uint256","name":"amount","type":"uint256"}],"name":"approve","outputs":[{"internalType":"bool","name":"","type":"bool"}],"stateMutability":"nonpayable","type":"function"},{"inputs":[{"internalType":"address","name":"account","type":"address"}],"name":"balanceOf","outputs":[{"internalType":"uint256","name":"","type":"uint256"}],"stateMutability":"view","type":"function"},{"inputs":[],"name":"decimals","outputs":[{"internalType":"uint8","name":"","type":"uint8"}],"stateMutability":"view","type":"function"},{"inputs":[{"internalType":"address","name":"spender","type":"address"},{"internalType":"uint256","name":"subtractedValue","type":"uint256"}],"name":"decreaseAllowance","outputs":[{"internalType":"bool","name":"","type":"bool"}],"stateMutability":"nonpayable","type":"function"},{"inputs":[],"name":"deposit","outputs":[],"stateMutability":"payable","type":"function"},{"inputs":[{"internalType":"address","name":"spender","type":"address"},{"internalType":"uint256","name":"addedValue","type":"uint256"}],"name":"increaseAllowance","outputs":[{"internalType":"bool","name":"","type":"bool"}],"stateMutability":"nonpayable","type":"function"},{"inputs":[{"internalType":"address","name":"account","type":"address"},{"internalType":"uint256","name":"amount","type":"uint256"}],"name":"mint","outputs":[],"stateMutability":"nonpayable","type":"function"},{"inputs":[],"name":"name","outputs":[{"internalType":"string","name":"","type":"string"}],"stateMutability":"view","type":"function"},{"inputs":[],"name":"symbol","outputs":[{"internalType":"string","name":"","type":"string"}],"stateMutability":"view","type":"function"},{"inputs":[],"name":"totalSupply","outputs":[{"internalType":"uint256","name":"","type":"uint256"}],"stateMutability":"view","type":"function"},{"inputs":[{"internalType":"address","name":"to","type":"address"},{"internalType":"uint256","name":"amount","type":"uint256"}],"name":"transfer","outputs":[{"internalType":"bool","name":"","type":"bool"}],"stateMutability":"nonpayable","type":"function"},{"inputs":[{"internalType":"address","name":"from","type":"address"},{"internalType":"address","name":"to","type":"address"},{"internalType":"uint256","name":"amount","type":"uint256"}],"name":"transferFrom","outputs":[{"internalType":"bool","name":"","type":"bool"}],"stateMutability":"nonpayable","type":"function"}]}